{
  "_format": "hh-sol-artifact-1",
  "contractName": "EmblemLPStaking",
  "sourceName": "contracts/EmblemLPStaking.sol",
  "abi": [
    {
      "inputs": [
        {
          "internalType": "contract IERC20",
          "name": "_emblemContractAddress",
          "type": "address"
        },
        {
          "internalType": "uint256",
          "name": "_emblemPerBlock",
          "type": "uint256"
        },
        {
          "internalType": "uint256",
          "name": "_startBlock",
          "type": "uint256"
        }
      ],
      "stateMutability": "nonpayable",
      "type": "constructor"
    },
    {
      "anonymous": false,
      "inputs": [
        {
          "indexed": true,
          "internalType": "address",
          "name": "from",
          "type": "address"
        },
        {
          "indexed": false,
          "internalType": "uint256",
          "name": "amount",
          "type": "uint256"
        }
      ],
      "name": "ContractFunded",
      "type": "event"
    },
    {
      "anonymous": false,
      "inputs": [
        {
          "indexed": true,
          "internalType": "address",
          "name": "user",
          "type": "address"
        },
        {
          "indexed": true,
          "internalType": "uint256",
          "name": "pid",
          "type": "uint256"
        },
        {
          "indexed": false,
          "internalType": "uint256",
          "name": "amount",
          "type": "uint256"
        }
      ],
      "name": "Deposit",
      "type": "event"
    },
    {
      "anonymous": false,
      "inputs": [
        {
          "indexed": true,
          "internalType": "address",
          "name": "user",
          "type": "address"
        },
        {
          "indexed": true,
          "internalType": "uint256",
          "name": "pid",
          "type": "uint256"
        },
        {
          "indexed": false,
          "internalType": "uint256",
          "name": "amount",
          "type": "uint256"
        }
      ],
      "name": "EmergencyWithdraw",
      "type": "event"
    },
    {
      "anonymous": false,
      "inputs": [
        {
          "indexed": true,
          "internalType": "address",
          "name": "previousOwner",
          "type": "address"
        },
        {
          "indexed": true,
          "internalType": "address",
          "name": "newOwner",
          "type": "address"
        }
      ],
      "name": "OwnershipTransferred",
      "type": "event"
    },
    {
      "anonymous": false,
      "inputs": [
        {
          "indexed": true,
          "internalType": "address",
          "name": "user",
          "type": "address"
        },
        {
          "indexed": true,
          "internalType": "uint256",
          "name": "pid",
          "type": "uint256"
        },
        {
          "indexed": false,
          "internalType": "uint256",
          "name": "amount",
          "type": "uint256"
        }
      ],
      "name": "Withdraw",
      "type": "event"
    },
    {
      "inputs": [
        {
          "internalType": "uint256",
          "name": "_emblemPerBlock",
          "type": "uint256"
        },
        {
          "internalType": "contract IERC20",
          "name": "_lpToken",
          "type": "address"
        },
        {
          "internalType": "bool",
          "name": "_withUpdate",
          "type": "bool"
        }
      ],
      "name": "add",
      "outputs": [],
      "stateMutability": "nonpayable",
      "type": "function"
    },
    {
      "inputs": [
        {
          "internalType": "uint256",
          "name": "_poolId",
          "type": "uint256"
        },
        {
          "internalType": "uint256",
          "name": "_amount",
          "type": "uint256"
        }
      ],
      "name": "deposit",
      "outputs": [],
      "stateMutability": "nonpayable",
      "type": "function"
    },
    {
      "inputs": [],
      "name": "emblemTokenContract",
      "outputs": [
        {
          "internalType": "contract IERC20",
          "name": "",
          "type": "address"
        }
      ],
      "stateMutability": "view",
      "type": "function"
    },
    {
      "inputs": [
        {
          "internalType": "uint256",
          "name": "_pid",
          "type": "uint256"
        }
      ],
      "name": "emergencyWithdraw",
      "outputs": [],
      "stateMutability": "nonpayable",
      "type": "function"
    },
    {
      "inputs": [
        {
          "internalType": "uint256",
          "name": "_amount",
          "type": "uint256"
        }
      ],
      "name": "fund",
      "outputs": [],
      "stateMutability": "nonpayable",
      "type": "function"
    },
    {
      "inputs": [],
      "name": "getLockedEmblemView",
      "outputs": [
        {
          "internalType": "uint256",
          "name": "",
          "type": "uint256"
        }
      ],
      "stateMutability": "view",
      "type": "function"
    },
    {
      "inputs": [
        {
          "internalType": "uint256",
          "name": "_poolId",
          "type": "uint256"
        }
      ],
      "name": "getLpSupply",
      "outputs": [
        {
          "internalType": "uint256",
          "name": "",
          "type": "uint256"
        }
      ],
      "stateMutability": "view",
      "type": "function"
    },
    {
      "inputs": [
        {
          "internalType": "uint256",
          "name": "_from",
          "type": "uint256"
        },
        {
          "internalType": "uint256",
          "name": "_to",
          "type": "uint256"
        }
      ],
      "name": "getMultiplier",
      "outputs": [
        {
          "internalType": "uint256",
          "name": "",
          "type": "uint256"
        }
      ],
      "stateMutability": "pure",
      "type": "function"
    },
    {
      "inputs": [
        {
          "internalType": "uint256",
          "name": "_poolId",
          "type": "uint256"
        }
      ],
      "name": "harvest",
      "outputs": [
        {
          "internalType": "uint256",
          "name": "",
          "type": "uint256"
        }
      ],
      "stateMutability": "nonpayable",
      "type": "function"
    },
    {
      "inputs": [],
      "name": "massUpdatePools",
      "outputs": [],
      "stateMutability": "nonpayable",
      "type": "function"
    },
    {
      "inputs": [],
      "name": "owner",
      "outputs": [
        {
          "internalType": "address",
          "name": "",
          "type": "address"
        }
      ],
      "stateMutability": "view",
      "type": "function"
    },
    {
      "inputs": [
        {
          "internalType": "uint256",
          "name": "_poolId",
          "type": "uint256"
        },
        {
          "internalType": "address",
          "name": "_user",
          "type": "address"
        }
      ],
      "name": "pendingEmblemReward",
      "outputs": [
        {
          "internalType": "uint256",
          "name": "",
          "type": "uint256"
        }
      ],
      "stateMutability": "view",
      "type": "function"
    },
    {
      "inputs": [
        {
          "internalType": "uint256",
          "name": "",
          "type": "uint256"
        }
      ],
      "name": "poolInfo",
      "outputs": [
        {
          "internalType": "contract IERC20",
          "name": "lpToken",
          "type": "address"
        },
        {
          "internalType": "uint256",
          "name": "perBlockEmblemAllocated",
          "type": "uint256"
        },
        {
          "internalType": "uint256",
          "name": "lastRewardBlock",
          "type": "uint256"
        },
        {
          "internalType": "uint256",
          "name": "accEmblemPerShare",
          "type": "uint256"
        }
      ],
      "stateMutability": "view",
      "type": "function"
    },
    {
      "inputs": [],
      "name": "poolLength",
      "outputs": [
        {
          "internalType": "uint256",
          "name": "",
          "type": "uint256"
        }
      ],
      "stateMutability": "view",
      "type": "function"
    },
    {
      "inputs": [],
      "name": "renounceOwnership",
      "outputs": [],
      "stateMutability": "nonpayable",
      "type": "function"
    },
    {
      "inputs": [
        {
          "internalType": "uint256",
          "name": "_poolId",
          "type": "uint256"
        },
        {
          "internalType": "uint256",
          "name": "_emblemPerBlock",
          "type": "uint256"
        },
        {
          "internalType": "bool",
          "name": "_withUpdate",
          "type": "bool"
        }
      ],
      "name": "set",
      "outputs": [],
      "stateMutability": "nonpayable",
      "type": "function"
    },
    {
      "inputs": [],
      "name": "startBlock",
      "outputs": [
        {
          "internalType": "uint256",
          "name": "",
          "type": "uint256"
        }
      ],
      "stateMutability": "view",
      "type": "function"
    },
    {
      "inputs": [
        {
          "internalType": "address",
          "name": "newOwner",
          "type": "address"
        }
      ],
      "name": "transferOwnership",
      "outputs": [],
      "stateMutability": "nonpayable",
      "type": "function"
    },
    {
      "inputs": [
        {
          "internalType": "uint256",
          "name": "_poolId",
          "type": "uint256"
        }
      ],
      "name": "updatePool",
      "outputs": [],
      "stateMutability": "nonpayable",
      "type": "function"
    },
    {
      "inputs": [
        {
          "internalType": "uint256",
          "name": "",
          "type": "uint256"
        },
        {
          "internalType": "address",
          "name": "",
          "type": "address"
        }
      ],
      "name": "userInfo",
      "outputs": [
        {
          "internalType": "uint256",
          "name": "amount",
          "type": "uint256"
        },
        {
          "internalType": "uint256",
          "name": "rewardDebt",
          "type": "uint256"
        }
      ],
      "stateMutability": "view",
      "type": "function"
    },
    {
      "inputs": [
        {
          "internalType": "uint256",
          "name": "_pid",
          "type": "uint256"
        },
        {
          "internalType": "uint256",
          "name": "_amount",
          "type": "uint256"
        }
      ],
      "name": "withdraw",
      "outputs": [],
      "stateMutability": "nonpayable",
      "type": "function"
    }
  ],
  "bytecode": "0x60806040523480156200001157600080fd5b5060405162002eab38038062002eab8339818101604052810190620000379190620001a2565b620000576200004b620000a860201b60201c565b620000b060201b60201c565b82600160006101000a81548173ffffffffffffffffffffffffffffffffffffffff021916908373ffffffffffffffffffffffffffffffffffffffff160217905550806004819055505050506200027e565b600033905090565b60008060009054906101000a900473ffffffffffffffffffffffffffffffffffffffff169050816000806101000a81548173ffffffffffffffffffffffffffffffffffffffff021916908373ffffffffffffffffffffffffffffffffffffffff1602179055508173ffffffffffffffffffffffffffffffffffffffff168173ffffffffffffffffffffffffffffffffffffffff167f8be0079c531659141344cd1fd0a4f28419497f9722a3daafe3b4186f6b6457e060405160405180910390a35050565b60008151905062000185816200024a565b92915050565b6000815190506200019c8162000264565b92915050565b600080600060608486031215620001b857600080fd5b6000620001c88682870162000174565b9350506020620001db868287016200018b565b9250506040620001ee868287016200018b565b9150509250925092565b6000620002058262000220565b9050919050565b60006200021982620001f8565b9050919050565b600073ffffffffffffffffffffffffffffffffffffffff82169050919050565b6000819050919050565b62000255816200020c565b81146200026157600080fd5b50565b6200026f8162000240565b81146200027b57600080fd5b50565b612c1d806200028e6000396000f3fe608060405234801561001057600080fd5b50600436106101375760003560e01c806364482f79116100b8578063959452261161007c578063959452261461032a578063ca1d209d14610348578063ddc6326214610364578063e2bbb15814610394578063efde6b37146103b0578063f2fde38b146103ce57610137565b806364482f7914610285578063715018a6146102a15780638da5cb5b146102ab5780638dbb1e3a146102c957806393f1a40b146102f957610137565b806348cd4cb1116100ff57806348cd4cb1146101f557806351eb05a6146102135780635312ea8e1461022f5780635ecbbf981461024b578063630b5ba11461027b57610137565b8063081e3eda1461013c5780631526fe271461015a5780631eaaa0451461018d57806321ad0ea0146101a9578063441a3e70146101d9575b600080fd5b6101446103ea565b6040516101519190612897565b60405180910390f35b610174600480360381019061016f91906120dc565b6103f7565b60405161018494939291906126d2565b60405180910390f35b6101a760048036038101906101a2919061216a565b610457565b005b6101c360048036038101906101be919061212e565b6105c9565b6040516101d09190612897565b60405180910390f35b6101f360048036038101906101ee91906121b9565b6107fb565b005b6101fd610a53565b60405161020a9190612897565b60405180910390f35b61022d600480360381019061022891906120dc565b610a59565b005b610249600480360381019061024491906120dc565b610c06565b005b610265600480360381019061026091906120dc565b610d65565b6040516102729190612897565b60405180910390f35b610283610e67565b005b61029f600480360381019061029a91906121f5565b610e9a565b005b6102a9610f7a565b005b6102b3611002565b6040516102c0919061263c565b60405180910390f35b6102e360048036038101906102de91906121b9565b61102b565b6040516102f09190612897565b60405180910390f35b610313600480360381019061030e919061212e565b611048565b6040516103219291906128b2565b60405180910390f35b610332611079565b60405161033f91906126b7565b60405180910390f35b610362600480360381019061035d91906120dc565b61109f565b005b61037e600480360381019061037991906120dc565b611348565b60405161038b9190612897565b60405180910390f35b6103ae60048036038101906103a991906121b9565b6114b1565b005b6103b86116d2565b6040516103c59190612897565b60405180910390f35b6103e860048036038101906103e3919061208a565b611784565b005b6000600280549050905090565b6002818154811061040757600080fd5b90600052602060002090600402016000915090508060000160009054906101000a900473ffffffffffffffffffffffffffffffffffffffff16908060010154908060020154908060030154905084565b61045f61187c565b73ffffffffffffffffffffffffffffffffffffffff1661047d611002565b73ffffffffffffffffffffffffffffffffffffffff16146104d3576040517f08c379a00000000000000000000000000000000000000000000000000000000081526004016104ca90612817565b60405180910390fd5b80156104e2576104e1610e67565b5b600060045443116104f5576004546104f7565b435b9050600260405180608001604052808573ffffffffffffffffffffffffffffffffffffffff1681526020018681526020018381526020016000815250908060018154018082558091505060019003906000526020600020906004020160009091909190915060008201518160000160006101000a81548173ffffffffffffffffffffffffffffffffffffffff021916908373ffffffffffffffffffffffffffffffffffffffff160217905550602082015181600101556040820151816002015560608201518160030155505050505050565b60008060028481548110610606577f4e487b7100000000000000000000000000000000000000000000000000000000600052603260045260246000fd5b9060005260206000209060040201905060006003600086815260200190815260200160002060008573ffffffffffffffffffffffffffffffffffffffff1673ffffffffffffffffffffffffffffffffffffffff168152602001908152602001600020905060008260030154905060008360000160009054906101000a900473ffffffffffffffffffffffffffffffffffffffff1673ffffffffffffffffffffffffffffffffffffffff166370a08231306040518263ffffffff1660e01b81526004016106d2919061263c565b60206040518083038186803b1580156106ea57600080fd5b505afa1580156106fe573d6000803e3d6000fd5b505050506040513d601f19601f820116820180604052508101906107229190612105565b9050836002015443118015610738575060008114155b156107ab57600061074d85600201544361102b565b9050600061076886600101548361188490919063ffffffff16565b90506107a66107978461078964e8d4a510008561188490919063ffffffff16565b61189a90919063ffffffff16565b856118b090919063ffffffff16565b935050505b6107ef83600101546107e164e8d4a510006107d386886000015461188490919063ffffffff16565b61189a90919063ffffffff16565b6118c690919063ffffffff16565b94505050505092915050565b600060028381548110610837577f4e487b7100000000000000000000000000000000000000000000000000000000600052603260045260246000fd5b9060005260206000209060040201905060006003600085815260200190815260200160002060003373ffffffffffffffffffffffffffffffffffffffff1673ffffffffffffffffffffffffffffffffffffffff168152602001908152602001600020905082816000015410156108e2576040517f08c379a00000000000000000000000000000000000000000000000000000000081526004016108d990612857565b60405180910390fd5b6108eb84610a59565b6000610935826001015461092764e8d4a510006109198760030154876000015461188490919063ffffffff16565b61189a90919063ffffffff16565b6118c690919063ffffffff16565b9050600081111561094b5761094a33826118dc565b5b60008411156109c35761096b8483600001546118c690919063ffffffff16565b82600001819055506109c233858560000160009054906101000a900473ffffffffffffffffffffffffffffffffffffffff1673ffffffffffffffffffffffffffffffffffffffff16611b049092919063ffffffff16565b5b6109f564e8d4a510006109e78560030154856000015461188490919063ffffffff16565b61189a90919063ffffffff16565b8260010181905550843373ffffffffffffffffffffffffffffffffffffffff167ff279e6a1f5e320cca91135676d9cb6e44ca8a08c0b88342bcdb1144f6511b56886604051610a449190612897565b60405180910390a35050505050565b60045481565b600060028281548110610a95577f4e487b7100000000000000000000000000000000000000000000000000000000600052603260045260246000fd5b9060005260206000209060040201905080600201544311610ab65750610c03565b60008160000160009054906101000a900473ffffffffffffffffffffffffffffffffffffffff1673ffffffffffffffffffffffffffffffffffffffff166370a08231306040518263ffffffff1660e01b8152600401610b15919061263c565b60206040518083038186803b158015610b2d57600080fd5b505afa158015610b41573d6000803e3d6000fd5b505050506040513d601f19601f82011682018060405250810190610b659190612105565b90506000811415610b80574382600201819055505050610c03565b6000610b9083600201544361102b565b90506000610bab84600101548361188490919063ffffffff16565b9050610bed610bda84610bcc64e8d4a510008561188490919063ffffffff16565b61189a90919063ffffffff16565b85600301546118b090919063ffffffff16565b8460030181905550438460020181905550505050505b50565b600060028281548110610c42577f4e487b7100000000000000000000000000000000000000000000000000000000600052603260045260246000fd5b9060005260206000209060040201905060006003600084815260200190815260200160002060003373ffffffffffffffffffffffffffffffffffffffff1673ffffffffffffffffffffffffffffffffffffffff1681526020019081526020016000209050610cf93382600001548460000160009054906101000a900473ffffffffffffffffffffffffffffffffffffffff1673ffffffffffffffffffffffffffffffffffffffff16611b049092919063ffffffff16565b823373ffffffffffffffffffffffffffffffffffffffff167fbb757047c2b5f3974fe26b7c10f732e7bce710b0952a71082702781e62ae05958360000154604051610d449190612897565b60405180910390a36000816000018190555060008160010181905550505050565b60008060028381548110610da2577f4e487b7100000000000000000000000000000000000000000000000000000000600052603260045260246000fd5b906000526020600020906004020190508060000160009054906101000a900473ffffffffffffffffffffffffffffffffffffffff1673ffffffffffffffffffffffffffffffffffffffff166370a08231306040518263ffffffff1660e01b8152600401610e0f919061263c565b60206040518083038186803b158015610e2757600080fd5b505afa158015610e3b573d6000803e3d6000fd5b505050506040513d601f19601f82011682018060405250810190610e5f9190612105565b915050919050565b6000600280549050905060005b81811015610e9657610e8581610a59565b80610e8f90612ad3565b9050610e74565b5050565b610ea261187c565b73ffffffffffffffffffffffffffffffffffffffff16610ec0611002565b73ffffffffffffffffffffffffffffffffffffffff1614610f16576040517f08c379a0000000000000000000000000000000000000000000000000000000008152600401610f0d90612817565b60405180910390fd5b8015610f2557610f24610e67565b5b8160028481548110610f60577f4e487b7100000000000000000000000000000000000000000000000000000000600052603260045260246000fd5b906000526020600020906004020160010181905550505050565b610f8261187c565b73ffffffffffffffffffffffffffffffffffffffff16610fa0611002565b73ffffffffffffffffffffffffffffffffffffffff1614610ff6576040517f08c379a0000000000000000000000000000000000000000000000000000000008152600401610fed90612817565b60405180910390fd5b6110006000611b8a565b565b60008060009054906101000a900473ffffffffffffffffffffffffffffffffffffffff16905090565b600061104083836118c690919063ffffffff16565b905092915050565b6003602052816000526040600020602052806000526040600020600091509150508060000154908060010154905082565b600160009054906101000a900473ffffffffffffffffffffffffffffffffffffffff1681565b6000339050600073ffffffffffffffffffffffffffffffffffffffff168173ffffffffffffffffffffffffffffffffffffffff161415611114576040517f08c379a000000000000000000000000000000000000000000000000000000000815260040161110b90612777565b60405180910390fd5b60008211611157576040517f08c379a000000000000000000000000000000000000000000000000000000000815260040161114e906127f7565b60405180910390fd5b81600160009054906101000a900473ffffffffffffffffffffffffffffffffffffffff1673ffffffffffffffffffffffffffffffffffffffff166370a08231836040518263ffffffff1660e01b81526004016111b3919061263c565b60206040518083038186803b1580156111cb57600080fd5b505afa1580156111df573d6000803e3d6000fd5b505050506040513d601f19601f820116820180604052508101906112039190612105565b1015611244576040517f08c379a000000000000000000000000000000000000000000000000000000000815260040161123b906127b7565b60405180910390fd5b600160009054906101000a900473ffffffffffffffffffffffffffffffffffffffff1673ffffffffffffffffffffffffffffffffffffffff166323b872dd8230856040518463ffffffff1660e01b81526004016112a393929190612657565b602060405180830381600087803b1580156112bd57600080fd5b505af11580156112d1573d6000803e3d6000fd5b505050506040513d601f19601f820116820180604052508101906112f591906120b3565b508073ffffffffffffffffffffffffffffffffffffffff167f0939f6f4877faf071412e527bc4c6d0bd65ad077e52b57334f7765265647a7f18360405161133c9190612897565b60405180910390a25050565b60008060028381548110611385577f4e487b7100000000000000000000000000000000000000000000000000000000600052603260045260246000fd5b9060005260206000209060040201905060006003600085815260200190815260200160002060003373ffffffffffffffffffffffffffffffffffffffff1673ffffffffffffffffffffffffffffffffffffffff16815260200190815260200160002090506113f36000610a59565b6114376040518060400160405280600c81526020017f63757272656e74426c6f636b0000000000000000000000000000000000000000815250438460030154611c4e565b6000816000015411156114a557600061148e826001015461148064e8d4a510006114728760030154876000015461188490919063ffffffff16565b61189a90919063ffffffff16565b6118c690919063ffffffff16565b905061149a33826118dc565b8093505050506114ac565b6000925050505b919050565b6000600283815481106114ed577f4e487b7100000000000000000000000000000000000000000000000000000000600052603260045260246000fd5b9060005260206000209060040201905060006003600085815260200190815260200160002060003373ffffffffffffffffffffffffffffffffffffffff1673ffffffffffffffffffffffffffffffffffffffff168152602001908152602001600020905061155a84610a59565b6000816000015411156115c95760006115b182600101546115a364e8d4a510006115958760030154876000015461188490919063ffffffff16565b61189a90919063ffffffff16565b6118c690919063ffffffff16565b905060008111156115c7576115c633826118dc565b5b505b6000831115611643576116233330858560000160009054906101000a900473ffffffffffffffffffffffffffffffffffffffff1673ffffffffffffffffffffffffffffffffffffffff16611ced909392919063ffffffff16565b61163a8382600001546118b090919063ffffffff16565b81600001819055505b61167564e8d4a510006116678460030154846000015461188490919063ffffffff16565b61189a90919063ffffffff16565b8160010181905550833373ffffffffffffffffffffffffffffffffffffffff167f90890809c654f11d6e72a28fa60149770a0d11ec6c92319d6ceb2bb0a4ea1a15856040516116c49190612897565b60405180910390a350505050565b6000600160009054906101000a900473ffffffffffffffffffffffffffffffffffffffff1673ffffffffffffffffffffffffffffffffffffffff166370a08231306040518263ffffffff1660e01b815260040161172f919061263c565b60206040518083038186803b15801561174757600080fd5b505afa15801561175b573d6000803e3d6000fd5b505050506040513d601f19601f8201168201806040525081019061177f9190612105565b905090565b61178c61187c565b73ffffffffffffffffffffffffffffffffffffffff166117aa611002565b73ffffffffffffffffffffffffffffffffffffffff1614611800576040517f08c379a00000000000000000000000000000000000000000000000000000000081526004016117f790612817565b60405180910390fd5b600073ffffffffffffffffffffffffffffffffffffffff168173ffffffffffffffffffffffffffffffffffffffff161415611870576040517f08c379a000000000000000000000000000000000000000000000000000000000815260040161186790612797565b60405180910390fd5b61187981611b8a565b50565b600033905090565b600081836118929190612994565b905092915050565b600081836118a89190612963565b905092915050565b600081836118be919061290d565b905092915050565b600081836118d491906129ee565b905092915050565b60003090506000600160009054906101000a900473ffffffffffffffffffffffffffffffffffffffff1673ffffffffffffffffffffffffffffffffffffffff166370a08231836040518263ffffffff1660e01b815260040161193e919061263c565b60206040518083038186803b15801561195657600080fd5b505afa15801561196a573d6000803e3d6000fd5b505050506040513d601f19601f8201168201806040525081019061198e9190612105565b905080831115611a4d57600160009054906101000a900473ffffffffffffffffffffffffffffffffffffffff1673ffffffffffffffffffffffffffffffffffffffff1663a9059cbb85836040518363ffffffff1660e01b81526004016119f592919061268e565b602060405180830381600087803b158015611a0f57600080fd5b505af1158015611a23573d6000803e3d6000fd5b505050506040513d601f19601f82011682018060405250810190611a4791906120b3565b50611afe565b600160009054906101000a900473ffffffffffffffffffffffffffffffffffffffff1673ffffffffffffffffffffffffffffffffffffffff1663a9059cbb85856040518363ffffffff1660e01b8152600401611aaa92919061268e565b602060405180830381600087803b158015611ac457600080fd5b505af1158015611ad8573d6000803e3d6000fd5b505050506040513d601f19601f82011682018060405250810190611afc91906120b3565b505b50505050565b611b858363a9059cbb60e01b8484604051602401611b2392919061268e565b604051602081830303815290604052907bffffffffffffffffffffffffffffffffffffffffffffffffffffffff19166020820180517bffffffffffffffffffffffffffffffffffffffffffffffffffffffff8381831617835250505050611d76565b505050565b60008060009054906101000a900473ffffffffffffffffffffffffffffffffffffffff169050816000806101000a81548173ffffffffffffffffffffffffffffffffffffffff021916908373ffffffffffffffffffffffffffffffffffffffff1602179055508173ffffffffffffffffffffffffffffffffffffffff168173ffffffffffffffffffffffffffffffffffffffff167f8be0079c531659141344cd1fd0a4f28419497f9722a3daafe3b4186f6b6457e060405160405180910390a35050565b611ce8838383604051602401611c6693929190612739565b6040516020818303038152906040527f969cdd03000000000000000000000000000000000000000000000000000000007bffffffffffffffffffffffffffffffffffffffffffffffffffffffff19166020820180517bffffffffffffffffffffffffffffffffffffffffffffffffffffffff8381831617835250505050611e3d565b505050565b611d70846323b872dd60e01b858585604051602401611d0e93929190612657565b604051602081830303815290604052907bffffffffffffffffffffffffffffffffffffffffffffffffffffffff19166020820180517bffffffffffffffffffffffffffffffffffffffffffffffffffffffff8381831617835250505050611d76565b50505050565b6000611dd8826040518060400160405280602081526020017f5361666545524332303a206c6f772d6c6576656c2063616c6c206661696c65648152508573ffffffffffffffffffffffffffffffffffffffff16611e669092919063ffffffff16565b9050600081511115611e385780806020019051810190611df891906120b3565b611e37576040517f08c379a0000000000000000000000000000000000000000000000000000000008152600401611e2e90612877565b60405180910390fd5b5b505050565b60008151905060006a636f6e736f6c652e6c6f679050602083016000808483855afa5050505050565b6060611e758484600085611e7e565b90509392505050565b606082471015611ec3576040517f08c379a0000000000000000000000000000000000000000000000000000000008152600401611eba906127d7565b60405180910390fd5b611ecc85611f92565b611f0b576040517f08c379a0000000000000000000000000000000000000000000000000000000008152600401611f0290612837565b60405180910390fd5b6000808673ffffffffffffffffffffffffffffffffffffffff168587604051611f349190612625565b60006040518083038185875af1925050503d8060008114611f71576040519150601f19603f3d011682016040523d82523d6000602084013e611f76565b606091505b5091509150611f86828286611fa5565b92505050949350505050565b600080823b905060008111915050919050565b60608315611fb557829050612005565b600083511115611fc85782518084602001fd5b816040517f08c379a0000000000000000000000000000000000000000000000000000000008152600401611ffc9190612717565b60405180910390fd5b9392505050565b60008135905061201b81612b8b565b92915050565b60008135905061203081612ba2565b92915050565b60008151905061204581612ba2565b92915050565b60008135905061205a81612bb9565b92915050565b60008135905061206f81612bd0565b92915050565b60008151905061208481612bd0565b92915050565b60006020828403121561209c57600080fd5b60006120aa8482850161200c565b91505092915050565b6000602082840312156120c557600080fd5b60006120d384828501612036565b91505092915050565b6000602082840312156120ee57600080fd5b60006120fc84828501612060565b91505092915050565b60006020828403121561211757600080fd5b600061212584828501612075565b91505092915050565b6000806040838503121561214157600080fd5b600061214f85828601612060565b92505060206121608582860161200c565b9150509250929050565b60008060006060848603121561217f57600080fd5b600061218d86828701612060565b935050602061219e8682870161204b565b92505060406121af86828701612021565b9150509250925092565b600080604083850312156121cc57600080fd5b60006121da85828601612060565b92505060206121eb85828601612060565b9150509250929050565b60008060006060848603121561220a57600080fd5b600061221886828701612060565b935050602061222986828701612060565b925050604061223a86828701612021565b9150509250925092565b61224d81612a22565b82525050565b600061225e826128db565b61226881856128f1565b9350612278818560208601612aa0565b80840191505092915050565b61228d81612a7c565b82525050565b600061229e826128e6565b6122a881856128fc565b93506122b8818560208601612aa0565b6122c181612b7a565b840191505092915050565b60006122d96023836128fc565b91507f66756e643a206d75737420706173732076616c6964205f66726f6d206164647260008301527f65737300000000000000000000000000000000000000000000000000000000006020830152604082019050919050565b600061233f6026836128fc565b91507f4f776e61626c653a206e6577206f776e657220697320746865207a65726f206160008301527f64647265737300000000000000000000000000000000000000000000000000006020830152604082019050919050565b60006123a56042836128fc565b91507f66756e643a20657870656374656420616e20616464726573732074686174206360008301527f6f6e7461696e7320656e6f75676820456d626c656d20666f72205472616e736660208301527f65720000000000000000000000000000000000000000000000000000000000006040830152606082019050919050565b60006124316026836128fc565b91507f416464726573733a20696e73756666696369656e742062616c616e636520666f60008301527f722063616c6c00000000000000000000000000000000000000000000000000006020830152604082019050919050565b60006124976031836128fc565b91507f66756e643a20657870656374696e67206120706f736974697665206e6f6e207a60008301527f65726f205f616d6f756e742076616c75650000000000000000000000000000006020830152604082019050919050565b60006124fd6020836128fc565b91507f4f776e61626c653a2063616c6c6572206973206e6f7420746865206f776e65726000830152602082019050919050565b600061253d601d836128fc565b91507f416464726573733a2063616c6c20746f206e6f6e2d636f6e74726163740000006000830152602082019050919050565b600061257d6012836128fc565b91507f77697468647261773a206e6f7420676f6f6400000000000000000000000000006000830152602082019050919050565b60006125bd602a836128fc565b91507f5361666545524332303a204552433230206f7065726174696f6e20646964206e60008301527f6f742073756363656564000000000000000000000000000000000000000000006020830152604082019050919050565b61261f81612a72565b82525050565b60006126318284612253565b915081905092915050565b60006020820190506126516000830184612244565b92915050565b600060608201905061266c6000830186612244565b6126796020830185612244565b6126866040830184612616565b949350505050565b60006040820190506126a36000830185612244565b6126b06020830184612616565b9392505050565b60006020820190506126cc6000830184612284565b92915050565b60006080820190506126e76000830187612284565b6126f46020830186612616565b6127016040830185612616565b61270e6060830184612616565b95945050505050565b600060208201905081810360008301526127318184612293565b905092915050565b600060608201905081810360008301526127538186612293565b90506127626020830185612616565b61276f6040830184612616565b949350505050565b60006020820190508181036000830152612790816122cc565b9050919050565b600060208201905081810360008301526127b081612332565b9050919050565b600060208201905081810360008301526127d081612398565b9050919050565b600060208201905081810360008301526127f081612424565b9050919050565b600060208201905081810360008301526128108161248a565b9050919050565b60006020820190508181036000830152612830816124f0565b9050919050565b6000602082019050818103600083015261285081612530565b9050919050565b6000602082019050818103600083015261287081612570565b9050919050565b60006020820190508181036000830152612890816125b0565b9050919050565b60006020820190506128ac6000830184612616565b92915050565b60006040820190506128c76000830185612616565b6128d46020830184612616565b9392505050565b600081519050919050565b600081519050919050565b600081905092915050565b600082825260208201905092915050565b600061291882612a72565b915061292383612a72565b9250827fffffffffffffffffffffffffffffffffffffffffffffffffffffffffffffffff0382111561295857612957612b1c565b5b828201905092915050565b600061296e82612a72565b915061297983612a72565b92508261298957612988612b4b565b5b828204905092915050565b600061299f82612a72565b91506129aa83612a72565b9250817fffffffffffffffffffffffffffffffffffffffffffffffffffffffffffffffff04831182151516156129e3576129e2612b1c565b5b828202905092915050565b60006129f982612a72565b9150612a0483612a72565b925082821015612a1757612a16612b1c565b5b828203905092915050565b6000612a2d82612a52565b9050919050565b60008115159050919050565b6000612a4b82612a22565b9050919050565b600073ffffffffffffffffffffffffffffffffffffffff82169050919050565b6000819050919050565b6000612a8782612a8e565b9050919050565b6000612a9982612a52565b9050919050565b60005b83811015612abe578082015181840152602081019050612aa3565b83811115612acd576000848401525b50505050565b6000612ade82612a72565b91507fffffffffffffffffffffffffffffffffffffffffffffffffffffffffffffffff821415612b1157612b10612b1c565b5b600182019050919050565b7f4e487b7100000000000000000000000000000000000000000000000000000000600052601160045260246000fd5b7f4e487b7100000000000000000000000000000000000000000000000000000000600052601260045260246000fd5b6000601f19601f8301169050919050565b612b9481612a22565b8114612b9f57600080fd5b50565b612bab81612a34565b8114612bb657600080fd5b50565b612bc281612a40565b8114612bcd57600080fd5b50565b612bd981612a72565b8114612be457600080fd5b5056fea2646970667358221220ae4442c4c9531a56df2808676339bbd1d14dc4d34b43cbb2ae15c334070e524c64736f6c63430008000033",
  "linkReferences": {},
  "deployedLinkReferences": {}
}