{
  "_format": "hh-sol-artifact-1",
  "contractName": "EmblemRewardStaking",
  "sourceName": "contracts/EmblemRewardStaking.sol",
  "abi": [
    {
      "inputs": [
        {
          "internalType": "uint256",
          "name": "_emblemPerBlock",
          "type": "uint256"
        },
        {
          "internalType": "uint256",
          "name": "_startBlock",
          "type": "uint256"
        }
      ],
      "stateMutability": "nonpayable",
      "type": "constructor"
    },
    {
      "anonymous": false,
      "inputs": [
        {
          "indexed": true,
          "internalType": "address",
          "name": "from",
          "type": "address"
        },
        {
          "indexed": false,
          "internalType": "uint256",
          "name": "amount",
          "type": "uint256"
        }
      ],
      "name": "ContractFunded",
      "type": "event"
    },
    {
      "anonymous": false,
      "inputs": [
        {
          "indexed": true,
          "internalType": "address",
          "name": "user",
          "type": "address"
        },
        {
          "indexed": true,
          "internalType": "uint256",
          "name": "pid",
          "type": "uint256"
        },
        {
          "indexed": false,
          "internalType": "uint256",
          "name": "amount",
          "type": "uint256"
        }
      ],
      "name": "Deposit",
      "type": "event"
    },
    {
      "anonymous": false,
      "inputs": [
        {
          "indexed": true,
          "internalType": "address",
          "name": "user",
          "type": "address"
        },
        {
          "indexed": true,
          "internalType": "uint256",
          "name": "pid",
          "type": "uint256"
        },
        {
          "indexed": false,
          "internalType": "uint256",
          "name": "amount",
          "type": "uint256"
        }
      ],
      "name": "EmergencyWithdraw",
      "type": "event"
    },
    {
      "anonymous": false,
      "inputs": [
        {
          "indexed": true,
          "internalType": "address",
          "name": "previousOwner",
          "type": "address"
        },
        {
          "indexed": true,
          "internalType": "address",
          "name": "newOwner",
          "type": "address"
        }
      ],
      "name": "OwnershipTransferred",
      "type": "event"
    },
    {
      "anonymous": false,
      "inputs": [
        {
          "indexed": true,
          "internalType": "address",
          "name": "user",
          "type": "address"
        },
        {
          "indexed": true,
          "internalType": "uint256",
          "name": "pid",
          "type": "uint256"
        },
        {
          "indexed": false,
          "internalType": "uint256",
          "name": "amount",
          "type": "uint256"
        }
      ],
      "name": "Withdraw",
      "type": "event"
    },
    {
      "inputs": [
        {
          "internalType": "uint256",
          "name": "_emblemPerBlock",
          "type": "uint256"
        },
        {
          "internalType": "contract IERC20",
          "name": "_stakingToken",
          "type": "address"
        },
        {
          "internalType": "contract IERC20",
          "name": "_rewardToken",
          "type": "address"
        },
        {
          "internalType": "bool",
          "name": "_withUpdate",
          "type": "bool"
        }
      ],
      "name": "add",
      "outputs": [],
      "stateMutability": "nonpayable",
      "type": "function"
    },
    {
      "inputs": [
        {
          "internalType": "uint256",
          "name": "_poolId",
          "type": "uint256"
        },
        {
          "internalType": "uint256",
          "name": "_amount",
          "type": "uint256"
        }
      ],
      "name": "deposit",
      "outputs": [],
      "stateMutability": "nonpayable",
      "type": "function"
    },
    {
      "inputs": [
        {
          "internalType": "uint256",
          "name": "_pid",
          "type": "uint256"
        }
      ],
      "name": "emergencyWithdraw",
      "outputs": [],
      "stateMutability": "nonpayable",
      "type": "function"
    },
    {
      "inputs": [
        {
          "internalType": "uint256",
          "name": "_poolId",
          "type": "uint256"
        },
        {
          "internalType": "uint256",
          "name": "_amount",
          "type": "uint256"
        }
      ],
      "name": "fund",
      "outputs": [],
      "stateMutability": "nonpayable",
      "type": "function"
    },
    {
      "inputs": [
        {
          "internalType": "uint256",
          "name": "_poolId",
          "type": "uint256"
        }
      ],
      "name": "getLockedEmblemView",
      "outputs": [
        {
          "internalType": "uint256",
          "name": "",
          "type": "uint256"
        }
      ],
      "stateMutability": "view",
      "type": "function"
    },
    {
      "inputs": [
        {
          "internalType": "uint256",
          "name": "_from",
          "type": "uint256"
        },
        {
          "internalType": "uint256",
          "name": "_to",
          "type": "uint256"
        }
      ],
      "name": "getMultiplier",
      "outputs": [
        {
          "internalType": "uint256",
          "name": "",
          "type": "uint256"
        }
      ],
      "stateMutability": "pure",
      "type": "function"
    },
    {
      "inputs": [
        {
          "internalType": "uint256",
          "name": "_poolId",
          "type": "uint256"
        }
      ],
      "name": "getStakingTokenSupply",
      "outputs": [
        {
          "internalType": "uint256",
          "name": "",
          "type": "uint256"
        }
      ],
      "stateMutability": "view",
      "type": "function"
    },
    {
      "inputs": [
        {
          "internalType": "uint256",
          "name": "_poolId",
          "type": "uint256"
        }
      ],
      "name": "harvest",
      "outputs": [
        {
          "internalType": "uint256",
          "name": "",
          "type": "uint256"
        }
      ],
      "stateMutability": "nonpayable",
      "type": "function"
    },
    {
      "inputs": [],
      "name": "massUpdatePools",
      "outputs": [],
      "stateMutability": "nonpayable",
      "type": "function"
    },
    {
      "inputs": [],
      "name": "owner",
      "outputs": [
        {
          "internalType": "address",
          "name": "",
          "type": "address"
        }
      ],
      "stateMutability": "view",
      "type": "function"
    },
    {
      "inputs": [
        {
          "internalType": "uint256",
          "name": "_poolId",
          "type": "uint256"
        },
        {
          "internalType": "address",
          "name": "_user",
          "type": "address"
        }
      ],
      "name": "pendingEmblemReward",
      "outputs": [
        {
          "internalType": "uint256",
          "name": "",
          "type": "uint256"
        }
      ],
      "stateMutability": "view",
      "type": "function"
    },
    {
      "inputs": [
        {
          "internalType": "uint256",
          "name": "",
          "type": "uint256"
        }
      ],
      "name": "poolInfo",
      "outputs": [
        {
          "internalType": "contract IERC20",
          "name": "stakingToken",
          "type": "address"
        },
        {
          "internalType": "contract IERC20",
          "name": "rewardToken",
          "type": "address"
        },
        {
          "internalType": "uint256",
          "name": "perBlockEmblemAllocated",
          "type": "uint256"
        },
        {
          "internalType": "uint256",
          "name": "lastRewardBlock",
          "type": "uint256"
        },
        {
          "internalType": "uint256",
          "name": "accEmblemPerShare",
          "type": "uint256"
        }
      ],
      "stateMutability": "view",
      "type": "function"
    },
    {
      "inputs": [],
      "name": "poolLength",
      "outputs": [
        {
          "internalType": "uint256",
          "name": "",
          "type": "uint256"
        }
      ],
      "stateMutability": "view",
      "type": "function"
    },
    {
      "inputs": [],
      "name": "renounceOwnership",
      "outputs": [],
      "stateMutability": "nonpayable",
      "type": "function"
    },
    {
      "inputs": [
        {
          "internalType": "uint256",
          "name": "_poolId",
          "type": "uint256"
        },
        {
          "internalType": "uint256",
          "name": "_emblemPerBlock",
          "type": "uint256"
        },
        {
          "internalType": "bool",
          "name": "_withUpdate",
          "type": "bool"
        }
      ],
      "name": "set",
      "outputs": [],
      "stateMutability": "nonpayable",
      "type": "function"
    },
    {
      "inputs": [],
      "name": "startBlock",
      "outputs": [
        {
          "internalType": "uint256",
          "name": "",
          "type": "uint256"
        }
      ],
      "stateMutability": "view",
      "type": "function"
    },
    {
      "inputs": [
        {
          "internalType": "address",
          "name": "newOwner",
          "type": "address"
        }
      ],
      "name": "transferOwnership",
      "outputs": [],
      "stateMutability": "nonpayable",
      "type": "function"
    },
    {
      "inputs": [
        {
          "internalType": "uint256",
          "name": "_poolId",
          "type": "uint256"
        }
      ],
      "name": "updatePool",
      "outputs": [],
      "stateMutability": "nonpayable",
      "type": "function"
    },
    {
      "inputs": [
        {
          "internalType": "uint256",
          "name": "",
          "type": "uint256"
        },
        {
          "internalType": "address",
          "name": "",
          "type": "address"
        }
      ],
      "name": "userInfo",
      "outputs": [
        {
          "internalType": "uint256",
          "name": "amount",
          "type": "uint256"
        },
        {
          "internalType": "uint256",
          "name": "rewardDebt",
          "type": "uint256"
        }
      ],
      "stateMutability": "view",
      "type": "function"
    },
    {
      "inputs": [
        {
          "internalType": "uint256",
          "name": "_pid",
          "type": "uint256"
        },
        {
          "internalType": "uint256",
          "name": "_amount",
          "type": "uint256"
        }
      ],
      "name": "withdraw",
      "outputs": [],
      "stateMutability": "nonpayable",
      "type": "function"
    }
  ],
  "bytecode": "0x60806040523480156200001157600080fd5b5060405162002f2938038062002f29833981810160405281019062000037919062000149565b620000576200004b6200006660201b60201c565b6200006e60201b60201c565b806003819055505050620001ae565b600033905090565b60008060009054906101000a900473ffffffffffffffffffffffffffffffffffffffff169050816000806101000a81548173ffffffffffffffffffffffffffffffffffffffff021916908373ffffffffffffffffffffffffffffffffffffffff1602179055508173ffffffffffffffffffffffffffffffffffffffff168173ffffffffffffffffffffffffffffffffffffffff167f8be0079c531659141344cd1fd0a4f28419497f9722a3daafe3b4186f6b6457e060405160405180910390a35050565b600081519050620001438162000194565b92915050565b600080604083850312156200015d57600080fd5b60006200016d8582860162000132565b9250506020620001808582860162000132565b9150509250929050565b6000819050919050565b6200019f816200018a565b8114620001ab57600080fd5b50565b612d6b80620001be6000396000f3fe608060405234801561001057600080fd5b506004361061012c5760003560e01c80638da5cb5b116100ad578063cc1574b311610071578063cc1574b31461030c578063ddc632621461033c578063e2bbb1581461036c578063ef58d26c14610388578063f2fde38b146103b85761012c565b80638da5cb5b146102555780638dbb1e3a1461027357806393f1a40b146102a3578063a65e2cfd146102d4578063c71b4b43146102f05761012c565b806351eb05a6116100f457806351eb05a6146101ed5780635312ea8e14610209578063630b5ba11461022557806364482f791461022f578063715018a61461024b5761012c565b8063081e3eda146101315780631526fe271461014f57806321ad0ea014610183578063441a3e70146101b357806348cd4cb1146101cf575b600080fd5b6101396103d4565b60405161014691906129e5565b60405180910390f35b61016960048036038101906101649190612223565b6103e1565b60405161017a959493929190612812565b60405180910390f35b61019d60048036038101906101989190612275565b610467565b6040516101aa91906129e5565b60405180910390f35b6101cd60048036038101906101c89190612314565b610699565b005b6101d76108f2565b6040516101e491906129e5565b60405180910390f35b61020760048036038101906102029190612223565b6108f8565b005b610223600480360381019061021e9190612223565b610aa5565b005b61022d610c04565b005b61024960048036038101906102449190612350565b610c37565b005b610253610d17565b005b61025d610d9f565b60405161026a9190612797565b60405180910390f35b61028d60048036038101906102889190612314565b610dc8565b60405161029a91906129e5565b60405180910390f35b6102bd60048036038101906102b89190612275565b610de5565b6040516102cb929190612a00565b60405180910390f35b6102ee60048036038101906102e99190612314565b610e16565b005b61030a600480360381019061030591906122b1565b611111565b005b61032660048036038101906103219190612223565b6112e7565b60405161033391906129e5565b60405180910390f35b61035660048036038101906103519190612223565b6113e9565b60405161036391906129e5565b60405180910390f35b61038660048036038101906103819190612314565b611553565b005b6103a2600480360381019061039d9190612223565b611775565b6040516103af91906129e5565b60405180910390f35b6103d260048036038101906103cd91906121d1565b611877565b005b6000600180549050905090565b600181815481106103f157600080fd5b90600052602060002090600502016000915090508060000160009054906101000a900473ffffffffffffffffffffffffffffffffffffffff16908060010160009054906101000a900473ffffffffffffffffffffffffffffffffffffffff16908060020154908060030154908060040154905085565b600080600184815481106104a4577f4e487b7100000000000000000000000000000000000000000000000000000000600052603260045260246000fd5b9060005260206000209060050201905060006002600086815260200190815260200160002060008573ffffffffffffffffffffffffffffffffffffffff1673ffffffffffffffffffffffffffffffffffffffff168152602001908152602001600020905060008260040154905060008360000160009054906101000a900473ffffffffffffffffffffffffffffffffffffffff1673ffffffffffffffffffffffffffffffffffffffff166370a08231306040518263ffffffff1660e01b81526004016105709190612797565b60206040518083038186803b15801561058857600080fd5b505afa15801561059c573d6000803e3d6000fd5b505050506040513d601f19601f820116820180604052508101906105c0919061224c565b90508360030154431180156105d6575060008114155b156106495760006105eb856003015443610dc8565b9050600061060686600201548361196f90919063ffffffff16565b90506106446106358461062764e8d4a510008561196f90919063ffffffff16565b61198590919063ffffffff16565b8561199b90919063ffffffff16565b935050505b61068d836001015461067f64e8d4a5100061067186886000015461196f90919063ffffffff16565b61198590919063ffffffff16565b6119b190919063ffffffff16565b94505050505092915050565b6000600183815481106106d5577f4e487b7100000000000000000000000000000000000000000000000000000000600052603260045260246000fd5b9060005260206000209060050201905060006002600085815260200190815260200160002060003373ffffffffffffffffffffffffffffffffffffffff1673ffffffffffffffffffffffffffffffffffffffff16815260200190815260200160002090508281600001541015610780576040517f08c379a0000000000000000000000000000000000000000000000000000000008152600401610777906129a5565b60405180910390fd5b610789846108f8565b60006107d382600101546107c564e8d4a510006107b78760040154876000015461196f90919063ffffffff16565b61198590919063ffffffff16565b6119b190919063ffffffff16565b905060008111156107ea576107e93382876119c7565b5b60008411156108625761080a8483600001546119b190919063ffffffff16565b826000018190555061086133858560000160009054906101000a900473ffffffffffffffffffffffffffffffffffffffff1673ffffffffffffffffffffffffffffffffffffffff16611c439092919063ffffffff16565b5b61089464e8d4a510006108868560040154856000015461196f90919063ffffffff16565b61198590919063ffffffff16565b8260010181905550843373ffffffffffffffffffffffffffffffffffffffff167ff279e6a1f5e320cca91135676d9cb6e44ca8a08c0b88342bcdb1144f6511b568866040516108e391906129e5565b60405180910390a35050505050565b60035481565b600060018281548110610934577f4e487b7100000000000000000000000000000000000000000000000000000000600052603260045260246000fd5b90600052602060002090600502019050806003015443116109555750610aa2565b60008160000160009054906101000a900473ffffffffffffffffffffffffffffffffffffffff1673ffffffffffffffffffffffffffffffffffffffff166370a08231306040518263ffffffff1660e01b81526004016109b49190612797565b60206040518083038186803b1580156109cc57600080fd5b505afa1580156109e0573d6000803e3d6000fd5b505050506040513d601f19601f82011682018060405250810190610a04919061224c565b90506000811415610a1f574382600301819055505050610aa2565b6000610a2f836003015443610dc8565b90506000610a4a84600201548361196f90919063ffffffff16565b9050610a8c610a7984610a6b64e8d4a510008561196f90919063ffffffff16565b61198590919063ffffffff16565b856004015461199b90919063ffffffff16565b8460040181905550438460030181905550505050505b50565b600060018281548110610ae1577f4e487b7100000000000000000000000000000000000000000000000000000000600052603260045260246000fd5b9060005260206000209060050201905060006002600084815260200190815260200160002060003373ffffffffffffffffffffffffffffffffffffffff1673ffffffffffffffffffffffffffffffffffffffff1681526020019081526020016000209050610b983382600001548460000160009054906101000a900473ffffffffffffffffffffffffffffffffffffffff1673ffffffffffffffffffffffffffffffffffffffff16611c439092919063ffffffff16565b823373ffffffffffffffffffffffffffffffffffffffff167fbb757047c2b5f3974fe26b7c10f732e7bce710b0952a71082702781e62ae05958360000154604051610be391906129e5565b60405180910390a36000816000018190555060008160010181905550505050565b6000600180549050905060005b81811015610c3357610c22816108f8565b80610c2c90612c21565b9050610c11565b5050565b610c3f611cc9565b73ffffffffffffffffffffffffffffffffffffffff16610c5d610d9f565b73ffffffffffffffffffffffffffffffffffffffff1614610cb3576040517f08c379a0000000000000000000000000000000000000000000000000000000008152600401610caa90612965565b60405180910390fd5b8015610cc257610cc1610c04565b5b8160018481548110610cfd577f4e487b7100000000000000000000000000000000000000000000000000000000600052603260045260246000fd5b906000526020600020906005020160020181905550505050565b610d1f611cc9565b73ffffffffffffffffffffffffffffffffffffffff16610d3d610d9f565b73ffffffffffffffffffffffffffffffffffffffff1614610d93576040517f08c379a0000000000000000000000000000000000000000000000000000000008152600401610d8a90612965565b60405180910390fd5b610d9d6000611cd1565b565b60008060009054906101000a900473ffffffffffffffffffffffffffffffffffffffff16905090565b6000610ddd83836119b190919063ffffffff16565b905092915050565b6002602052816000526040600020602052806000526040600020600091509150508060000154908060010154905082565b600060018381548110610e52577f4e487b7100000000000000000000000000000000000000000000000000000000600052603260045260246000fd5b906000526020600020906005020190506000339050600073ffffffffffffffffffffffffffffffffffffffff168173ffffffffffffffffffffffffffffffffffffffff161415610ed7576040517f08c379a0000000000000000000000000000000000000000000000000000000008152600401610ece906128c5565b60405180910390fd5b60008311610f1a576040517f08c379a0000000000000000000000000000000000000000000000000000000008152600401610f1190612945565b60405180910390fd5b828260010160009054906101000a900473ffffffffffffffffffffffffffffffffffffffff1673ffffffffffffffffffffffffffffffffffffffff166370a08231836040518263ffffffff1660e01b8152600401610f789190612797565b60206040518083038186803b158015610f9057600080fd5b505afa158015610fa4573d6000803e3d6000fd5b505050506040513d601f19601f82011682018060405250810190610fc8919061224c565b1015611009576040517f08c379a000000000000000000000000000000000000000000000000000000000815260040161100090612905565b60405180910390fd5b8160010160009054906101000a900473ffffffffffffffffffffffffffffffffffffffff1673ffffffffffffffffffffffffffffffffffffffff166323b872dd8230866040518463ffffffff1660e01b815260040161106a939291906127b2565b602060405180830381600087803b15801561108457600080fd5b505af1158015611098573d6000803e3d6000fd5b505050506040513d601f19601f820116820180604052508101906110bc91906121fa565b508073ffffffffffffffffffffffffffffffffffffffff167f0939f6f4877faf071412e527bc4c6d0bd65ad077e52b57334f7765265647a7f18460405161110391906129e5565b60405180910390a250505050565b611119611cc9565b73ffffffffffffffffffffffffffffffffffffffff16611137610d9f565b73ffffffffffffffffffffffffffffffffffffffff161461118d576040517f08c379a000000000000000000000000000000000000000000000000000000000815260040161118490612965565b60405180910390fd5b801561119c5761119b610c04565b5b600060035443116111af576003546111b1565b435b905060016040518060a001604052808673ffffffffffffffffffffffffffffffffffffffff1681526020018573ffffffffffffffffffffffffffffffffffffffff1681526020018781526020018381526020016000815250908060018154018082558091505060019003906000526020600020906005020160009091909190915060008201518160000160006101000a81548173ffffffffffffffffffffffffffffffffffffffff021916908373ffffffffffffffffffffffffffffffffffffffff16021790555060208201518160010160006101000a81548173ffffffffffffffffffffffffffffffffffffffff021916908373ffffffffffffffffffffffffffffffffffffffff16021790555060408201518160020155606082015181600301556080820151816004015550505050505050565b60008060018381548110611324577f4e487b7100000000000000000000000000000000000000000000000000000000600052603260045260246000fd5b906000526020600020906005020190508060010160009054906101000a900473ffffffffffffffffffffffffffffffffffffffff1673ffffffffffffffffffffffffffffffffffffffff166370a08231306040518263ffffffff1660e01b81526004016113919190612797565b60206040518083038186803b1580156113a957600080fd5b505afa1580156113bd573d6000803e3d6000fd5b505050506040513d601f19601f820116820180604052508101906113e1919061224c565b915050919050565b60008060018381548110611426577f4e487b7100000000000000000000000000000000000000000000000000000000600052603260045260246000fd5b9060005260206000209060050201905060006002600085815260200190815260200160002060003373ffffffffffffffffffffffffffffffffffffffff1673ffffffffffffffffffffffffffffffffffffffff168152602001908152602001600020905061149460006108f8565b6114d86040518060400160405280600c81526020017f63757272656e74426c6f636b0000000000000000000000000000000000000000815250438460040154611d95565b60008160000154111561154757600061152f826001015461152164e8d4a510006115138760040154876000015461196f90919063ffffffff16565b61198590919063ffffffff16565b6119b190919063ffffffff16565b905061153c3382876119c7565b80935050505061154e565b6000925050505b919050565b60006001838154811061158f577f4e487b7100000000000000000000000000000000000000000000000000000000600052603260045260246000fd5b9060005260206000209060050201905060006002600085815260200190815260200160002060003373ffffffffffffffffffffffffffffffffffffffff1673ffffffffffffffffffffffffffffffffffffffff16815260200190815260200160002090506115fc846108f8565b60008160000154111561166c576000611653826001015461164564e8d4a510006116378760040154876000015461196f90919063ffffffff16565b61198590919063ffffffff16565b6119b190919063ffffffff16565b9050600081111561166a576116693382876119c7565b5b505b60008311156116e6576116c63330858560000160009054906101000a900473ffffffffffffffffffffffffffffffffffffffff1673ffffffffffffffffffffffffffffffffffffffff16611e34909392919063ffffffff16565b6116dd83826000015461199b90919063ffffffff16565b81600001819055505b61171864e8d4a5100061170a8460040154846000015461196f90919063ffffffff16565b61198590919063ffffffff16565b8160010181905550833373ffffffffffffffffffffffffffffffffffffffff167f90890809c654f11d6e72a28fa60149770a0d11ec6c92319d6ceb2bb0a4ea1a158560405161176791906129e5565b60405180910390a350505050565b600080600183815481106117b2577f4e487b7100000000000000000000000000000000000000000000000000000000600052603260045260246000fd5b906000526020600020906005020190508060000160009054906101000a900473ffffffffffffffffffffffffffffffffffffffff1673ffffffffffffffffffffffffffffffffffffffff166370a08231306040518263ffffffff1660e01b815260040161181f9190612797565b60206040518083038186803b15801561183757600080fd5b505afa15801561184b573d6000803e3d6000fd5b505050506040513d601f19601f8201168201806040525081019061186f919061224c565b915050919050565b61187f611cc9565b73ffffffffffffffffffffffffffffffffffffffff1661189d610d9f565b73ffffffffffffffffffffffffffffffffffffffff16146118f3576040517f08c379a00000000000000000000000000000000000000000000000000000000081526004016118ea90612965565b60405180910390fd5b600073ffffffffffffffffffffffffffffffffffffffff168173ffffffffffffffffffffffffffffffffffffffff161415611963576040517f08c379a000000000000000000000000000000000000000000000000000000000815260040161195a906128e5565b60405180910390fd5b61196c81611cd1565b50565b6000818361197d9190612ae2565b905092915050565b600081836119939190612ab1565b905092915050565b600081836119a99190612a5b565b905092915050565b600081836119bf9190612b3c565b905092915050565b600060018281548110611a03577f4e487b7100000000000000000000000000000000000000000000000000000000600052603260045260246000fd5b90600052602060002090600502019050600030905060008260010160009054906101000a900473ffffffffffffffffffffffffffffffffffffffff1673ffffffffffffffffffffffffffffffffffffffff166370a08231836040518263ffffffff1660e01b8152600401611a779190612797565b60206040518083038186803b158015611a8f57600080fd5b505afa158015611aa3573d6000803e3d6000fd5b505050506040513d601f19601f82011682018060405250810190611ac7919061224c565b905080851115611b88578260010160009054906101000a900473ffffffffffffffffffffffffffffffffffffffff1673ffffffffffffffffffffffffffffffffffffffff1663a9059cbb87836040518363ffffffff1660e01b8152600401611b309291906127e9565b602060405180830381600087803b158015611b4a57600080fd5b505af1158015611b5e573d6000803e3d6000fd5b505050506040513d601f19601f82011682018060405250810190611b8291906121fa565b50611c3b565b8260010160009054906101000a900473ffffffffffffffffffffffffffffffffffffffff1673ffffffffffffffffffffffffffffffffffffffff1663a9059cbb87876040518363ffffffff1660e01b8152600401611be79291906127e9565b602060405180830381600087803b158015611c0157600080fd5b505af1158015611c15573d6000803e3d6000fd5b505050506040513d601f19601f82011682018060405250810190611c3991906121fa565b505b505050505050565b611cc48363a9059cbb60e01b8484604051602401611c629291906127e9565b604051602081830303815290604052907bffffffffffffffffffffffffffffffffffffffffffffffffffffffff19166020820180517bffffffffffffffffffffffffffffffffffffffffffffffffffffffff8381831617835250505050611ebd565b505050565b600033905090565b60008060009054906101000a900473ffffffffffffffffffffffffffffffffffffffff169050816000806101000a81548173ffffffffffffffffffffffffffffffffffffffff021916908373ffffffffffffffffffffffffffffffffffffffff1602179055508173ffffffffffffffffffffffffffffffffffffffff168173ffffffffffffffffffffffffffffffffffffffff167f8be0079c531659141344cd1fd0a4f28419497f9722a3daafe3b4186f6b6457e060405160405180910390a35050565b611e2f838383604051602401611dad93929190612887565b6040516020818303038152906040527f969cdd03000000000000000000000000000000000000000000000000000000007bffffffffffffffffffffffffffffffffffffffffffffffffffffffff19166020820180517bffffffffffffffffffffffffffffffffffffffffffffffffffffffff8381831617835250505050611f84565b505050565b611eb7846323b872dd60e01b858585604051602401611e55939291906127b2565b604051602081830303815290604052907bffffffffffffffffffffffffffffffffffffffffffffffffffffffff19166020820180517bffffffffffffffffffffffffffffffffffffffffffffffffffffffff8381831617835250505050611ebd565b50505050565b6000611f1f826040518060400160405280602081526020017f5361666545524332303a206c6f772d6c6576656c2063616c6c206661696c65648152508573ffffffffffffffffffffffffffffffffffffffff16611fad9092919063ffffffff16565b9050600081511115611f7f5780806020019051810190611f3f91906121fa565b611f7e576040517f08c379a0000000000000000000000000000000000000000000000000000000008152600401611f75906129c5565b60405180910390fd5b5b505050565b60008151905060006a636f6e736f6c652e6c6f679050602083016000808483855afa5050505050565b6060611fbc8484600085611fc5565b90509392505050565b60608247101561200a576040517f08c379a000000000000000000000000000000000000000000000000000000000815260040161200190612925565b60405180910390fd5b612013856120d9565b612052576040517f08c379a000000000000000000000000000000000000000000000000000000000815260040161204990612985565b60405180910390fd5b6000808673ffffffffffffffffffffffffffffffffffffffff16858760405161207b9190612780565b60006040518083038185875af1925050503d80600081146120b8576040519150601f19603f3d011682016040523d82523d6000602084013e6120bd565b606091505b50915091506120cd8282866120ec565b92505050949350505050565b600080823b905060008111915050919050565b606083156120fc5782905061214c565b60008351111561210f5782518084602001fd5b816040517f08c379a00000000000000000000000000000000000000000000000000000000081526004016121439190612865565b60405180910390fd5b9392505050565b60008135905061216281612cd9565b92915050565b60008135905061217781612cf0565b92915050565b60008151905061218c81612cf0565b92915050565b6000813590506121a181612d07565b92915050565b6000813590506121b681612d1e565b92915050565b6000815190506121cb81612d1e565b92915050565b6000602082840312156121e357600080fd5b60006121f184828501612153565b91505092915050565b60006020828403121561220c57600080fd5b600061221a8482850161217d565b91505092915050565b60006020828403121561223557600080fd5b6000612243848285016121a7565b91505092915050565b60006020828403121561225e57600080fd5b600061226c848285016121bc565b91505092915050565b6000806040838503121561228857600080fd5b6000612296858286016121a7565b92505060206122a785828601612153565b9150509250929050565b600080600080608085870312156122c757600080fd5b60006122d5878288016121a7565b94505060206122e687828801612192565b93505060406122f787828801612192565b925050606061230887828801612168565b91505092959194509250565b6000806040838503121561232757600080fd5b6000612335858286016121a7565b9250506020612346858286016121a7565b9150509250929050565b60008060006060848603121561236557600080fd5b6000612373868287016121a7565b9350506020612384868287016121a7565b925050604061239586828701612168565b9150509250925092565b6123a881612b70565b82525050565b60006123b982612a29565b6123c38185612a3f565b93506123d3818560208601612bee565b80840191505092915050565b6123e881612bca565b82525050565b60006123f982612a34565b6124038185612a4a565b9350612413818560208601612bee565b61241c81612cc8565b840191505092915050565b6000612434602383612a4a565b91507f66756e643a206d75737420706173732076616c6964205f66726f6d206164647260008301527f65737300000000000000000000000000000000000000000000000000000000006020830152604082019050919050565b600061249a602683612a4a565b91507f4f776e61626c653a206e6577206f776e657220697320746865207a65726f206160008301527f64647265737300000000000000000000000000000000000000000000000000006020830152604082019050919050565b6000612500604283612a4a565b91507f66756e643a20657870656374656420616e20616464726573732074686174206360008301527f6f6e7461696e7320656e6f75676820456d626c656d20666f72205472616e736660208301527f65720000000000000000000000000000000000000000000000000000000000006040830152606082019050919050565b600061258c602683612a4a565b91507f416464726573733a20696e73756666696369656e742062616c616e636520666f60008301527f722063616c6c00000000000000000000000000000000000000000000000000006020830152604082019050919050565b60006125f2603183612a4a565b91507f66756e643a20657870656374696e67206120706f736974697665206e6f6e207a60008301527f65726f205f616d6f756e742076616c75650000000000000000000000000000006020830152604082019050919050565b6000612658602083612a4a565b91507f4f776e61626c653a2063616c6c6572206973206e6f7420746865206f776e65726000830152602082019050919050565b6000612698601d83612a4a565b91507f416464726573733a2063616c6c20746f206e6f6e2d636f6e74726163740000006000830152602082019050919050565b60006126d8601283612a4a565b91507f77697468647261773a206e6f7420676f6f6400000000000000000000000000006000830152602082019050919050565b6000612718602a83612a4a565b91507f5361666545524332303a204552433230206f7065726174696f6e20646964206e60008301527f6f742073756363656564000000000000000000000000000000000000000000006020830152604082019050919050565b61277a81612bc0565b82525050565b600061278c82846123ae565b915081905092915050565b60006020820190506127ac600083018461239f565b92915050565b60006060820190506127c7600083018661239f565b6127d4602083018561239f565b6127e16040830184612771565b949350505050565b60006040820190506127fe600083018561239f565b61280b6020830184612771565b9392505050565b600060a08201905061282760008301886123df565b61283460208301876123df565b6128416040830186612771565b61284e6060830185612771565b61285b6080830184612771565b9695505050505050565b6000602082019050818103600083015261287f81846123ee565b905092915050565b600060608201905081810360008301526128a181866123ee565b90506128b06020830185612771565b6128bd6040830184612771565b949350505050565b600060208201905081810360008301526128de81612427565b9050919050565b600060208201905081810360008301526128fe8161248d565b9050919050565b6000602082019050818103600083015261291e816124f3565b9050919050565b6000602082019050818103600083015261293e8161257f565b9050919050565b6000602082019050818103600083015261295e816125e5565b9050919050565b6000602082019050818103600083015261297e8161264b565b9050919050565b6000602082019050818103600083015261299e8161268b565b9050919050565b600060208201905081810360008301526129be816126cb565b9050919050565b600060208201905081810360008301526129de8161270b565b9050919050565b60006020820190506129fa6000830184612771565b92915050565b6000604082019050612a156000830185612771565b612a226020830184612771565b9392505050565b600081519050919050565b600081519050919050565b600081905092915050565b600082825260208201905092915050565b6000612a6682612bc0565b9150612a7183612bc0565b9250827fffffffffffffffffffffffffffffffffffffffffffffffffffffffffffffffff03821115612aa657612aa5612c6a565b5b828201905092915050565b6000612abc82612bc0565b9150612ac783612bc0565b925082612ad757612ad6612c99565b5b828204905092915050565b6000612aed82612bc0565b9150612af883612bc0565b9250817fffffffffffffffffffffffffffffffffffffffffffffffffffffffffffffffff0483118215151615612b3157612b30612c6a565b5b828202905092915050565b6000612b4782612bc0565b9150612b5283612bc0565b925082821015612b6557612b64612c6a565b5b828203905092915050565b6000612b7b82612ba0565b9050919050565b60008115159050919050565b6000612b9982612b70565b9050919050565b600073ffffffffffffffffffffffffffffffffffffffff82169050919050565b6000819050919050565b6000612bd582612bdc565b9050919050565b6000612be782612ba0565b9050919050565b60005b83811015612c0c578082015181840152602081019050612bf1565b83811115612c1b576000848401525b50505050565b6000612c2c82612bc0565b91507fffffffffffffffffffffffffffffffffffffffffffffffffffffffffffffffff821415612c5f57612c5e612c6a565b5b600182019050919050565b7f4e487b7100000000000000000000000000000000000000000000000000000000600052601160045260246000fd5b7f4e487b7100000000000000000000000000000000000000000000000000000000600052601260045260246000fd5b6000601f19601f8301169050919050565b612ce281612b70565b8114612ced57600080fd5b50565b612cf981612b82565b8114612d0457600080fd5b50565b612d1081612b8e565b8114612d1b57600080fd5b50565b612d2781612bc0565b8114612d3257600080fd5b5056fea2646970667358221220a5dbf39b8bc41c3b2a068c2c0d60439b915f37eb11f4a30af08bb684488c2a5064736f6c63430008000033",
  "linkReferences": {},
  "deployedLinkReferences": {}
}