{
  "_format": "hh-sol-artifact-1",
  "contractName": "EmblemLPStaking",
  "sourceName": "contracts/EmblemLPStaking.sol",
  "abi": [
    {
      "inputs": [
        {
          "internalType": "contract IERC20",
          "name": "_emblemContractAddress",
          "type": "address"
        },
        {
          "internalType": "uint256",
          "name": "_emblemPerBlock",
          "type": "uint256"
        },
        {
          "internalType": "uint256",
          "name": "_startBlock",
          "type": "uint256"
        }
      ],
      "stateMutability": "nonpayable",
      "type": "constructor"
    },
    {
      "anonymous": false,
      "inputs": [
        {
          "indexed": true,
          "internalType": "address",
          "name": "from",
          "type": "address"
        },
        {
          "indexed": false,
          "internalType": "uint256",
          "name": "amount",
          "type": "uint256"
        }
      ],
      "name": "ContractFunded",
      "type": "event"
    },
    {
      "anonymous": false,
      "inputs": [
        {
          "indexed": true,
          "internalType": "address",
          "name": "user",
          "type": "address"
        },
        {
          "indexed": true,
          "internalType": "uint256",
          "name": "pid",
          "type": "uint256"
        },
        {
          "indexed": false,
          "internalType": "uint256",
          "name": "amount",
          "type": "uint256"
        }
      ],
      "name": "Deposit",
      "type": "event"
    },
    {
      "anonymous": false,
      "inputs": [
        {
          "indexed": true,
          "internalType": "address",
          "name": "user",
          "type": "address"
        },
        {
          "indexed": true,
          "internalType": "uint256",
          "name": "pid",
          "type": "uint256"
        },
        {
          "indexed": false,
          "internalType": "uint256",
          "name": "amount",
          "type": "uint256"
        }
      ],
      "name": "EmergencyWithdraw",
      "type": "event"
    },
    {
      "anonymous": false,
      "inputs": [
        {
          "indexed": true,
          "internalType": "address",
          "name": "previousOwner",
          "type": "address"
        },
        {
          "indexed": true,
          "internalType": "address",
          "name": "newOwner",
          "type": "address"
        }
      ],
      "name": "OwnershipTransferred",
      "type": "event"
    },
    {
      "anonymous": false,
      "inputs": [
        {
          "indexed": true,
          "internalType": "address",
          "name": "user",
          "type": "address"
        },
        {
          "indexed": true,
          "internalType": "uint256",
          "name": "pid",
          "type": "uint256"
        },
        {
          "indexed": false,
          "internalType": "uint256",
          "name": "amount",
          "type": "uint256"
        }
      ],
      "name": "Withdraw",
      "type": "event"
    },
    {
      "inputs": [
        {
          "internalType": "uint256",
          "name": "_emblemPerBlock",
          "type": "uint256"
        },
        {
          "internalType": "contract IERC20",
          "name": "_lpToken",
          "type": "address"
        },
        {
          "internalType": "bool",
          "name": "_withUpdate",
          "type": "bool"
        }
      ],
      "name": "add",
      "outputs": [],
      "stateMutability": "nonpayable",
      "type": "function"
    },
    {
      "inputs": [
        {
          "internalType": "uint256",
          "name": "_poolId",
          "type": "uint256"
        },
        {
          "internalType": "uint256",
          "name": "_amount",
          "type": "uint256"
        }
      ],
      "name": "deposit",
      "outputs": [],
      "stateMutability": "nonpayable",
      "type": "function"
    },
    {
      "inputs": [],
      "name": "emblemTokenContract",
      "outputs": [
        {
          "internalType": "contract IERC20",
          "name": "",
          "type": "address"
        }
      ],
      "stateMutability": "view",
      "type": "function"
    },
    {
      "inputs": [
        {
          "internalType": "uint256",
          "name": "_pid",
          "type": "uint256"
        }
      ],
      "name": "emergencyWithdraw",
      "outputs": [],
      "stateMutability": "nonpayable",
      "type": "function"
    },
    {
      "inputs": [
        {
          "internalType": "uint256",
          "name": "_amount",
          "type": "uint256"
        }
      ],
      "name": "fund",
      "outputs": [],
      "stateMutability": "nonpayable",
      "type": "function"
    },
    {
      "inputs": [],
      "name": "getLockedEmblemView",
      "outputs": [
        {
          "internalType": "uint256",
          "name": "",
          "type": "uint256"
        }
      ],
      "stateMutability": "view",
      "type": "function"
    },
    {
      "inputs": [
        {
          "internalType": "uint256",
          "name": "_poolId",
          "type": "uint256"
        }
      ],
      "name": "getLpSupply",
      "outputs": [
        {
          "internalType": "uint256",
          "name": "",
          "type": "uint256"
        }
      ],
      "stateMutability": "view",
      "type": "function"
    },
    {
      "inputs": [
        {
          "internalType": "uint256",
          "name": "_from",
          "type": "uint256"
        },
        {
          "internalType": "uint256",
          "name": "_to",
          "type": "uint256"
        }
      ],
      "name": "getMultiplier",
      "outputs": [
        {
          "internalType": "uint256",
          "name": "",
          "type": "uint256"
        }
      ],
      "stateMutability": "pure",
      "type": "function"
    },
    {
      "inputs": [
        {
          "internalType": "uint256",
          "name": "_poolId",
          "type": "uint256"
        }
      ],
      "name": "harvest",
      "outputs": [
        {
          "internalType": "uint256",
          "name": "",
          "type": "uint256"
        }
      ],
      "stateMutability": "nonpayable",
      "type": "function"
    },
    {
      "inputs": [],
      "name": "massUpdatePools",
      "outputs": [],
      "stateMutability": "nonpayable",
      "type": "function"
    },
    {
      "inputs": [],
      "name": "owner",
      "outputs": [
        {
          "internalType": "address",
          "name": "",
          "type": "address"
        }
      ],
      "stateMutability": "view",
      "type": "function"
    },
    {
      "inputs": [
        {
          "internalType": "uint256",
          "name": "_poolId",
          "type": "uint256"
        }
      ],
      "name": "pendingEmblemReward",
      "outputs": [
        {
          "internalType": "uint256",
          "name": "",
          "type": "uint256"
        }
      ],
      "stateMutability": "view",
      "type": "function"
    },
    {
      "inputs": [
        {
          "internalType": "uint256",
          "name": "",
          "type": "uint256"
        }
      ],
      "name": "poolInfo",
      "outputs": [
        {
          "internalType": "contract IERC20",
          "name": "lpToken",
          "type": "address"
        },
        {
          "internalType": "uint256",
          "name": "perBlockEmblemAllocated",
          "type": "uint256"
        },
        {
          "internalType": "uint256",
          "name": "lastRewardBlock",
          "type": "uint256"
        },
        {
          "internalType": "uint256",
          "name": "accEmblemPerShare",
          "type": "uint256"
        }
      ],
      "stateMutability": "view",
      "type": "function"
    },
    {
      "inputs": [],
      "name": "poolLength",
      "outputs": [
        {
          "internalType": "uint256",
          "name": "",
          "type": "uint256"
        }
      ],
      "stateMutability": "view",
      "type": "function"
    },
    {
      "inputs": [],
      "name": "renounceOwnership",
      "outputs": [],
      "stateMutability": "nonpayable",
      "type": "function"
    },
    {
      "inputs": [
        {
          "internalType": "uint256",
          "name": "_poolId",
          "type": "uint256"
        },
        {
          "internalType": "uint256",
          "name": "_emblemPerBlock",
          "type": "uint256"
        },
        {
          "internalType": "bool",
          "name": "_withUpdate",
          "type": "bool"
        }
      ],
      "name": "set",
      "outputs": [],
      "stateMutability": "nonpayable",
      "type": "function"
    },
    {
      "inputs": [],
      "name": "startBlock",
      "outputs": [
        {
          "internalType": "uint256",
          "name": "",
          "type": "uint256"
        }
      ],
      "stateMutability": "view",
      "type": "function"
    },
    {
      "inputs": [
        {
          "internalType": "address",
          "name": "newOwner",
          "type": "address"
        }
      ],
      "name": "transferOwnership",
      "outputs": [],
      "stateMutability": "nonpayable",
      "type": "function"
    },
    {
      "inputs": [
        {
          "internalType": "uint256",
          "name": "_poolId",
          "type": "uint256"
        }
      ],
      "name": "updatePool",
      "outputs": [],
      "stateMutability": "nonpayable",
      "type": "function"
    },
    {
      "inputs": [
        {
          "internalType": "uint256",
          "name": "",
          "type": "uint256"
        },
        {
          "internalType": "address",
          "name": "",
          "type": "address"
        }
      ],
      "name": "userInfo",
      "outputs": [
        {
          "internalType": "uint256",
          "name": "amount",
          "type": "uint256"
        },
        {
          "internalType": "uint256",
          "name": "rewardDebt",
          "type": "uint256"
        }
      ],
      "stateMutability": "view",
      "type": "function"
    },
    {
      "inputs": [
        {
          "internalType": "uint256",
          "name": "_pid",
          "type": "uint256"
        },
        {
          "internalType": "uint256",
          "name": "_amount",
          "type": "uint256"
        }
      ],
      "name": "withdraw",
      "outputs": [],
      "stateMutability": "nonpayable",
      "type": "function"
    }
  ],
  "bytecode": "0x60806040523480156200001157600080fd5b5060405162002eaa38038062002eaa8339818101604052810190620000379190620001a2565b620000576200004b620000a860201b60201c565b620000b060201b60201c565b82600160006101000a81548173ffffffffffffffffffffffffffffffffffffffff021916908373ffffffffffffffffffffffffffffffffffffffff160217905550806004819055505050506200027e565b600033905090565b60008060009054906101000a900473ffffffffffffffffffffffffffffffffffffffff169050816000806101000a81548173ffffffffffffffffffffffffffffffffffffffff021916908373ffffffffffffffffffffffffffffffffffffffff1602179055508173ffffffffffffffffffffffffffffffffffffffff168173ffffffffffffffffffffffffffffffffffffffff167f8be0079c531659141344cd1fd0a4f28419497f9722a3daafe3b4186f6b6457e060405160405180910390a35050565b60008151905062000185816200024a565b92915050565b6000815190506200019c8162000264565b92915050565b600080600060608486031215620001b857600080fd5b6000620001c88682870162000174565b9350506020620001db868287016200018b565b9250506040620001ee868287016200018b565b9150509250925092565b6000620002058262000220565b9050919050565b60006200021982620001f8565b9050919050565b600073ffffffffffffffffffffffffffffffffffffffff82169050919050565b6000819050919050565b62000255816200020c565b81146200026157600080fd5b50565b6200026f8162000240565b81146200027b57600080fd5b50565b612c1c806200028e6000396000f3fe608060405234801561001057600080fd5b50600436106101375760003560e01c8063715018a6116100b8578063ca1d209d1161007c578063ca1d209d14610318578063ccbf8dba14610334578063ddc6326214610364578063e2bbb15814610394578063efde6b37146103b0578063f2fde38b146103ce57610137565b8063715018a6146102715780638da5cb5b1461027b5780638dbb1e3a1461029957806393f1a40b146102c957806395945226146102fa57610137565b806351eb05a6116100ff57806351eb05a6146101e35780635312ea8e146101ff5780635ecbbf981461021b578063630b5ba11461024b57806364482f791461025557610137565b8063081e3eda1461013c5780631526fe271461015a5780631eaaa0451461018d578063441a3e70146101a957806348cd4cb1146101c5575b600080fd5b6101446103ea565b6040516101519190612896565b60405180910390f35b610174600480360381019061016f91906120db565b6103f7565b60405161018494939291906126d1565b60405180910390f35b6101a760048036038101906101a29190612169565b610457565b005b6101c360048036038101906101be91906121b8565b6105c9565b005b6101cd610821565b6040516101da9190612896565b60405180910390f35b6101fd60048036038101906101f891906120db565b610827565b005b610219600480360381019061021491906120db565b6109d4565b005b610235600480360381019061023091906120db565b610b33565b6040516102429190612896565b60405180910390f35b610253610c35565b005b61026f600480360381019061026a91906121f4565b610c68565b005b610279610d48565b005b610283610dd0565b604051610290919061263b565b60405180910390f35b6102b360048036038101906102ae91906121b8565b610df9565b6040516102c09190612896565b60405180910390f35b6102e360048036038101906102de919061212d565b610e16565b6040516102f19291906128b1565b60405180910390f35b610302610e47565b60405161030f91906126b6565b60405180910390f35b610332600480360381019061032d91906120db565b610e6d565b005b61034e600480360381019061034991906120db565b611116565b60405161035b9190612896565b60405180910390f35b61037e600480360381019061037991906120db565b611347565b60405161038b9190612896565b60405180910390f35b6103ae60048036038101906103a991906121b8565b6114b0565b005b6103b86116d1565b6040516103c59190612896565b60405180910390f35b6103e860048036038101906103e39190612089565b611783565b005b6000600280549050905090565b6002818154811061040757600080fd5b90600052602060002090600402016000915090508060000160009054906101000a900473ffffffffffffffffffffffffffffffffffffffff16908060010154908060020154908060030154905084565b61045f61187b565b73ffffffffffffffffffffffffffffffffffffffff1661047d610dd0565b73ffffffffffffffffffffffffffffffffffffffff16146104d3576040517f08c379a00000000000000000000000000000000000000000000000000000000081526004016104ca90612816565b60405180910390fd5b80156104e2576104e1610c35565b5b600060045443116104f5576004546104f7565b435b9050600260405180608001604052808573ffffffffffffffffffffffffffffffffffffffff1681526020018681526020018381526020016000815250908060018154018082558091505060019003906000526020600020906004020160009091909190915060008201518160000160006101000a81548173ffffffffffffffffffffffffffffffffffffffff021916908373ffffffffffffffffffffffffffffffffffffffff160217905550602082015181600101556040820151816002015560608201518160030155505050505050565b600060028381548110610605577f4e487b7100000000000000000000000000000000000000000000000000000000600052603260045260246000fd5b9060005260206000209060040201905060006003600085815260200190815260200160002060003373ffffffffffffffffffffffffffffffffffffffff1673ffffffffffffffffffffffffffffffffffffffff168152602001908152602001600020905082816000015410156106b0576040517f08c379a00000000000000000000000000000000000000000000000000000000081526004016106a790612856565b60405180910390fd5b6106b984610827565b600061070382600101546106f564e8d4a510006106e78760030154876000015461188390919063ffffffff16565b61189990919063ffffffff16565b6118af90919063ffffffff16565b905060008111156107195761071833826118c5565b5b6000841115610791576107398483600001546118af90919063ffffffff16565b826000018190555061079033858560000160009054906101000a900473ffffffffffffffffffffffffffffffffffffffff1673ffffffffffffffffffffffffffffffffffffffff16611aed9092919063ffffffff16565b5b6107c364e8d4a510006107b58560030154856000015461188390919063ffffffff16565b61189990919063ffffffff16565b8260010181905550843373ffffffffffffffffffffffffffffffffffffffff167ff279e6a1f5e320cca91135676d9cb6e44ca8a08c0b88342bcdb1144f6511b568866040516108129190612896565b60405180910390a35050505050565b60045481565b600060028281548110610863577f4e487b7100000000000000000000000000000000000000000000000000000000600052603260045260246000fd5b906000526020600020906004020190508060020154431161088457506109d1565b60008160000160009054906101000a900473ffffffffffffffffffffffffffffffffffffffff1673ffffffffffffffffffffffffffffffffffffffff166370a08231306040518263ffffffff1660e01b81526004016108e3919061263b565b60206040518083038186803b1580156108fb57600080fd5b505afa15801561090f573d6000803e3d6000fd5b505050506040513d601f19601f820116820180604052508101906109339190612104565b9050600081141561094e5743826002018190555050506109d1565b600061095e836002015443610df9565b9050600061097984600101548361188390919063ffffffff16565b90506109bb6109a88461099a64e8d4a510008561188390919063ffffffff16565b61189990919063ffffffff16565b8560030154611b7390919063ffffffff16565b8460030181905550438460020181905550505050505b50565b600060028281548110610a10577f4e487b7100000000000000000000000000000000000000000000000000000000600052603260045260246000fd5b9060005260206000209060040201905060006003600084815260200190815260200160002060003373ffffffffffffffffffffffffffffffffffffffff1673ffffffffffffffffffffffffffffffffffffffff1681526020019081526020016000209050610ac73382600001548460000160009054906101000a900473ffffffffffffffffffffffffffffffffffffffff1673ffffffffffffffffffffffffffffffffffffffff16611aed9092919063ffffffff16565b823373ffffffffffffffffffffffffffffffffffffffff167fbb757047c2b5f3974fe26b7c10f732e7bce710b0952a71082702781e62ae05958360000154604051610b129190612896565b60405180910390a36000816000018190555060008160010181905550505050565b60008060028381548110610b70577f4e487b7100000000000000000000000000000000000000000000000000000000600052603260045260246000fd5b906000526020600020906004020190508060000160009054906101000a900473ffffffffffffffffffffffffffffffffffffffff1673ffffffffffffffffffffffffffffffffffffffff166370a08231306040518263ffffffff1660e01b8152600401610bdd919061263b565b60206040518083038186803b158015610bf557600080fd5b505afa158015610c09573d6000803e3d6000fd5b505050506040513d601f19601f82011682018060405250810190610c2d9190612104565b915050919050565b6000600280549050905060005b81811015610c6457610c5381610827565b80610c5d90612ad2565b9050610c42565b5050565b610c7061187b565b73ffffffffffffffffffffffffffffffffffffffff16610c8e610dd0565b73ffffffffffffffffffffffffffffffffffffffff1614610ce4576040517f08c379a0000000000000000000000000000000000000000000000000000000008152600401610cdb90612816565b60405180910390fd5b8015610cf357610cf2610c35565b5b8160028481548110610d2e577f4e487b7100000000000000000000000000000000000000000000000000000000600052603260045260246000fd5b906000526020600020906004020160010181905550505050565b610d5061187b565b73ffffffffffffffffffffffffffffffffffffffff16610d6e610dd0565b73ffffffffffffffffffffffffffffffffffffffff1614610dc4576040517f08c379a0000000000000000000000000000000000000000000000000000000008152600401610dbb90612816565b60405180910390fd5b610dce6000611b89565b565b60008060009054906101000a900473ffffffffffffffffffffffffffffffffffffffff16905090565b6000610e0e83836118af90919063ffffffff16565b905092915050565b6003602052816000526040600020602052806000526040600020600091509150508060000154908060010154905082565b600160009054906101000a900473ffffffffffffffffffffffffffffffffffffffff1681565b6000339050600073ffffffffffffffffffffffffffffffffffffffff168173ffffffffffffffffffffffffffffffffffffffff161415610ee2576040517f08c379a0000000000000000000000000000000000000000000000000000000008152600401610ed990612776565b60405180910390fd5b60008211610f25576040517f08c379a0000000000000000000000000000000000000000000000000000000008152600401610f1c906127f6565b60405180910390fd5b81600160009054906101000a900473ffffffffffffffffffffffffffffffffffffffff1673ffffffffffffffffffffffffffffffffffffffff166370a08231836040518263ffffffff1660e01b8152600401610f81919061263b565b60206040518083038186803b158015610f9957600080fd5b505afa158015610fad573d6000803e3d6000fd5b505050506040513d601f19601f82011682018060405250810190610fd19190612104565b1015611012576040517f08c379a0000000000000000000000000000000000000000000000000000000008152600401611009906127b6565b60405180910390fd5b600160009054906101000a900473ffffffffffffffffffffffffffffffffffffffff1673ffffffffffffffffffffffffffffffffffffffff166323b872dd8230856040518463ffffffff1660e01b815260040161107193929190612656565b602060405180830381600087803b15801561108b57600080fd5b505af115801561109f573d6000803e3d6000fd5b505050506040513d601f19601f820116820180604052508101906110c391906120b2565b508073ffffffffffffffffffffffffffffffffffffffff167f0939f6f4877faf071412e527bc4c6d0bd65ad077e52b57334f7765265647a7f18360405161110a9190612896565b60405180910390a25050565b60008060028381548110611153577f4e487b7100000000000000000000000000000000000000000000000000000000600052603260045260246000fd5b9060005260206000209060040201905060006003600085815260200190815260200160002060003373ffffffffffffffffffffffffffffffffffffffff1673ffffffffffffffffffffffffffffffffffffffff168152602001908152602001600020905060008260030154905060008360000160009054906101000a900473ffffffffffffffffffffffffffffffffffffffff1673ffffffffffffffffffffffffffffffffffffffff166370a08231306040518263ffffffff1660e01b815260040161121f919061263b565b60206040518083038186803b15801561123757600080fd5b505afa15801561124b573d6000803e3d6000fd5b505050506040513d601f19601f8201168201806040525081019061126f9190612104565b9050836002015443118015611285575060008114155b156112f857600061129a856002015443610df9565b905060006112b586600101548361188390919063ffffffff16565b90506112f36112e4846112d664e8d4a510008561188390919063ffffffff16565b61189990919063ffffffff16565b85611b7390919063ffffffff16565b935050505b61133c836001015461132e64e8d4a5100061132086886000015461188390919063ffffffff16565b61189990919063ffffffff16565b6118af90919063ffffffff16565b945050505050919050565b60008060028381548110611384577f4e487b7100000000000000000000000000000000000000000000000000000000600052603260045260246000fd5b9060005260206000209060040201905060006003600085815260200190815260200160002060003373ffffffffffffffffffffffffffffffffffffffff1673ffffffffffffffffffffffffffffffffffffffff16815260200190815260200160002090506113f26000610827565b6114366040518060400160405280600c81526020017f63757272656e74426c6f636b0000000000000000000000000000000000000000815250438460030154611c4d565b6000816000015411156114a457600061148d826001015461147f64e8d4a510006114718760030154876000015461188390919063ffffffff16565b61189990919063ffffffff16565b6118af90919063ffffffff16565b905061149933826118c5565b8093505050506114ab565b6000925050505b919050565b6000600283815481106114ec577f4e487b7100000000000000000000000000000000000000000000000000000000600052603260045260246000fd5b9060005260206000209060040201905060006003600085815260200190815260200160002060003373ffffffffffffffffffffffffffffffffffffffff1673ffffffffffffffffffffffffffffffffffffffff168152602001908152602001600020905061155984610827565b6000816000015411156115c85760006115b082600101546115a264e8d4a510006115948760030154876000015461188390919063ffffffff16565b61189990919063ffffffff16565b6118af90919063ffffffff16565b905060008111156115c6576115c533826118c5565b5b505b6000831115611642576116223330858560000160009054906101000a900473ffffffffffffffffffffffffffffffffffffffff1673ffffffffffffffffffffffffffffffffffffffff16611cec909392919063ffffffff16565b611639838260000154611b7390919063ffffffff16565b81600001819055505b61167464e8d4a510006116668460030154846000015461188390919063ffffffff16565b61189990919063ffffffff16565b8160010181905550833373ffffffffffffffffffffffffffffffffffffffff167f90890809c654f11d6e72a28fa60149770a0d11ec6c92319d6ceb2bb0a4ea1a15856040516116c39190612896565b60405180910390a350505050565b6000600160009054906101000a900473ffffffffffffffffffffffffffffffffffffffff1673ffffffffffffffffffffffffffffffffffffffff166370a08231306040518263ffffffff1660e01b815260040161172e919061263b565b60206040518083038186803b15801561174657600080fd5b505afa15801561175a573d6000803e3d6000fd5b505050506040513d601f19601f8201168201806040525081019061177e9190612104565b905090565b61178b61187b565b73ffffffffffffffffffffffffffffffffffffffff166117a9610dd0565b73ffffffffffffffffffffffffffffffffffffffff16146117ff576040517f08c379a00000000000000000000000000000000000000000000000000000000081526004016117f690612816565b60405180910390fd5b600073ffffffffffffffffffffffffffffffffffffffff168173ffffffffffffffffffffffffffffffffffffffff16141561186f576040517f08c379a000000000000000000000000000000000000000000000000000000000815260040161186690612796565b60405180910390fd5b61187881611b89565b50565b600033905090565b600081836118919190612993565b905092915050565b600081836118a79190612962565b905092915050565b600081836118bd91906129ed565b905092915050565b60003090506000600160009054906101000a900473ffffffffffffffffffffffffffffffffffffffff1673ffffffffffffffffffffffffffffffffffffffff166370a08231836040518263ffffffff1660e01b8152600401611927919061263b565b60206040518083038186803b15801561193f57600080fd5b505afa158015611953573d6000803e3d6000fd5b505050506040513d601f19601f820116820180604052508101906119779190612104565b905080831115611a3657600160009054906101000a900473ffffffffffffffffffffffffffffffffffffffff1673ffffffffffffffffffffffffffffffffffffffff1663a9059cbb85836040518363ffffffff1660e01b81526004016119de92919061268d565b602060405180830381600087803b1580156119f857600080fd5b505af1158015611a0c573d6000803e3d6000fd5b505050506040513d601f19601f82011682018060405250810190611a3091906120b2565b50611ae7565b600160009054906101000a900473ffffffffffffffffffffffffffffffffffffffff1673ffffffffffffffffffffffffffffffffffffffff1663a9059cbb85856040518363ffffffff1660e01b8152600401611a9392919061268d565b602060405180830381600087803b158015611aad57600080fd5b505af1158015611ac1573d6000803e3d6000fd5b505050506040513d601f19601f82011682018060405250810190611ae591906120b2565b505b50505050565b611b6e8363a9059cbb60e01b8484604051602401611b0c92919061268d565b604051602081830303815290604052907bffffffffffffffffffffffffffffffffffffffffffffffffffffffff19166020820180517bffffffffffffffffffffffffffffffffffffffffffffffffffffffff8381831617835250505050611d75565b505050565b60008183611b81919061290c565b905092915050565b60008060009054906101000a900473ffffffffffffffffffffffffffffffffffffffff169050816000806101000a81548173ffffffffffffffffffffffffffffffffffffffff021916908373ffffffffffffffffffffffffffffffffffffffff1602179055508173ffffffffffffffffffffffffffffffffffffffff168173ffffffffffffffffffffffffffffffffffffffff167f8be0079c531659141344cd1fd0a4f28419497f9722a3daafe3b4186f6b6457e060405160405180910390a35050565b611ce7838383604051602401611c6593929190612738565b6040516020818303038152906040527f969cdd03000000000000000000000000000000000000000000000000000000007bffffffffffffffffffffffffffffffffffffffffffffffffffffffff19166020820180517bffffffffffffffffffffffffffffffffffffffffffffffffffffffff8381831617835250505050611e3c565b505050565b611d6f846323b872dd60e01b858585604051602401611d0d93929190612656565b604051602081830303815290604052907bffffffffffffffffffffffffffffffffffffffffffffffffffffffff19166020820180517bffffffffffffffffffffffffffffffffffffffffffffffffffffffff8381831617835250505050611d75565b50505050565b6000611dd7826040518060400160405280602081526020017f5361666545524332303a206c6f772d6c6576656c2063616c6c206661696c65648152508573ffffffffffffffffffffffffffffffffffffffff16611e659092919063ffffffff16565b9050600081511115611e375780806020019051810190611df791906120b2565b611e36576040517f08c379a0000000000000000000000000000000000000000000000000000000008152600401611e2d90612876565b60405180910390fd5b5b505050565b60008151905060006a636f6e736f6c652e6c6f679050602083016000808483855afa5050505050565b6060611e748484600085611e7d565b90509392505050565b606082471015611ec2576040517f08c379a0000000000000000000000000000000000000000000000000000000008152600401611eb9906127d6565b60405180910390fd5b611ecb85611f91565b611f0a576040517f08c379a0000000000000000000000000000000000000000000000000000000008152600401611f0190612836565b60405180910390fd5b6000808673ffffffffffffffffffffffffffffffffffffffff168587604051611f339190612624565b60006040518083038185875af1925050503d8060008114611f70576040519150601f19603f3d011682016040523d82523d6000602084013e611f75565b606091505b5091509150611f85828286611fa4565b92505050949350505050565b600080823b905060008111915050919050565b60608315611fb457829050612004565b600083511115611fc75782518084602001fd5b816040517f08c379a0000000000000000000000000000000000000000000000000000000008152600401611ffb9190612716565b60405180910390fd5b9392505050565b60008135905061201a81612b8a565b92915050565b60008135905061202f81612ba1565b92915050565b60008151905061204481612ba1565b92915050565b60008135905061205981612bb8565b92915050565b60008135905061206e81612bcf565b92915050565b60008151905061208381612bcf565b92915050565b60006020828403121561209b57600080fd5b60006120a98482850161200b565b91505092915050565b6000602082840312156120c457600080fd5b60006120d284828501612035565b91505092915050565b6000602082840312156120ed57600080fd5b60006120fb8482850161205f565b91505092915050565b60006020828403121561211657600080fd5b600061212484828501612074565b91505092915050565b6000806040838503121561214057600080fd5b600061214e8582860161205f565b925050602061215f8582860161200b565b9150509250929050565b60008060006060848603121561217e57600080fd5b600061218c8682870161205f565b935050602061219d8682870161204a565b92505060406121ae86828701612020565b9150509250925092565b600080604083850312156121cb57600080fd5b60006121d98582860161205f565b92505060206121ea8582860161205f565b9150509250929050565b60008060006060848603121561220957600080fd5b60006122178682870161205f565b93505060206122288682870161205f565b925050604061223986828701612020565b9150509250925092565b61224c81612a21565b82525050565b600061225d826128da565b61226781856128f0565b9350612277818560208601612a9f565b80840191505092915050565b61228c81612a7b565b82525050565b600061229d826128e5565b6122a781856128fb565b93506122b7818560208601612a9f565b6122c081612b79565b840191505092915050565b60006122d86023836128fb565b91507f66756e643a206d75737420706173732076616c6964205f66726f6d206164647260008301527f65737300000000000000000000000000000000000000000000000000000000006020830152604082019050919050565b600061233e6026836128fb565b91507f4f776e61626c653a206e6577206f776e657220697320746865207a65726f206160008301527f64647265737300000000000000000000000000000000000000000000000000006020830152604082019050919050565b60006123a46042836128fb565b91507f66756e643a20657870656374656420616e20616464726573732074686174206360008301527f6f6e7461696e7320656e6f75676820456d626c656d20666f72205472616e736660208301527f65720000000000000000000000000000000000000000000000000000000000006040830152606082019050919050565b60006124306026836128fb565b91507f416464726573733a20696e73756666696369656e742062616c616e636520666f60008301527f722063616c6c00000000000000000000000000000000000000000000000000006020830152604082019050919050565b60006124966031836128fb565b91507f66756e643a20657870656374696e67206120706f736974697665206e6f6e207a60008301527f65726f205f616d6f756e742076616c75650000000000000000000000000000006020830152604082019050919050565b60006124fc6020836128fb565b91507f4f776e61626c653a2063616c6c6572206973206e6f7420746865206f776e65726000830152602082019050919050565b600061253c601d836128fb565b91507f416464726573733a2063616c6c20746f206e6f6e2d636f6e74726163740000006000830152602082019050919050565b600061257c6012836128fb565b91507f77697468647261773a206e6f7420676f6f6400000000000000000000000000006000830152602082019050919050565b60006125bc602a836128fb565b91507f5361666545524332303a204552433230206f7065726174696f6e20646964206e60008301527f6f742073756363656564000000000000000000000000000000000000000000006020830152604082019050919050565b61261e81612a71565b82525050565b60006126308284612252565b915081905092915050565b60006020820190506126506000830184612243565b92915050565b600060608201905061266b6000830186612243565b6126786020830185612243565b6126856040830184612615565b949350505050565b60006040820190506126a26000830185612243565b6126af6020830184612615565b9392505050565b60006020820190506126cb6000830184612283565b92915050565b60006080820190506126e66000830187612283565b6126f36020830186612615565b6127006040830185612615565b61270d6060830184612615565b95945050505050565b600060208201905081810360008301526127308184612292565b905092915050565b600060608201905081810360008301526127528186612292565b90506127616020830185612615565b61276e6040830184612615565b949350505050565b6000602082019050818103600083015261278f816122cb565b9050919050565b600060208201905081810360008301526127af81612331565b9050919050565b600060208201905081810360008301526127cf81612397565b9050919050565b600060208201905081810360008301526127ef81612423565b9050919050565b6000602082019050818103600083015261280f81612489565b9050919050565b6000602082019050818103600083015261282f816124ef565b9050919050565b6000602082019050818103600083015261284f8161252f565b9050919050565b6000602082019050818103600083015261286f8161256f565b9050919050565b6000602082019050818103600083015261288f816125af565b9050919050565b60006020820190506128ab6000830184612615565b92915050565b60006040820190506128c66000830185612615565b6128d36020830184612615565b9392505050565b600081519050919050565b600081519050919050565b600081905092915050565b600082825260208201905092915050565b600061291782612a71565b915061292283612a71565b9250827fffffffffffffffffffffffffffffffffffffffffffffffffffffffffffffffff0382111561295757612956612b1b565b5b828201905092915050565b600061296d82612a71565b915061297883612a71565b92508261298857612987612b4a565b5b828204905092915050565b600061299e82612a71565b91506129a983612a71565b9250817fffffffffffffffffffffffffffffffffffffffffffffffffffffffffffffffff04831182151516156129e2576129e1612b1b565b5b828202905092915050565b60006129f882612a71565b9150612a0383612a71565b925082821015612a1657612a15612b1b565b5b828203905092915050565b6000612a2c82612a51565b9050919050565b60008115159050919050565b6000612a4a82612a21565b9050919050565b600073ffffffffffffffffffffffffffffffffffffffff82169050919050565b6000819050919050565b6000612a8682612a8d565b9050919050565b6000612a9882612a51565b9050919050565b60005b83811015612abd578082015181840152602081019050612aa2565b83811115612acc576000848401525b50505050565b6000612add82612a71565b91507fffffffffffffffffffffffffffffffffffffffffffffffffffffffffffffffff821415612b1057612b0f612b1b565b5b600182019050919050565b7f4e487b7100000000000000000000000000000000000000000000000000000000600052601160045260246000fd5b7f4e487b7100000000000000000000000000000000000000000000000000000000600052601260045260246000fd5b6000601f19601f8301169050919050565b612b9381612a21565b8114612b9e57600080fd5b50565b612baa81612a33565b8114612bb557600080fd5b50565b612bc181612a3f565b8114612bcc57600080fd5b50565b612bd881612a71565b8114612be357600080fd5b5056fea2646970667358221220af34e1e6ed4edd5d2052a9310404d5c4650f6d7a2b99b1db7dca368640eaa6ed64736f6c63430008000033",
  "linkReferences": {},
  "deployedLinkReferences": {}
}